:020000042001D9
:100000009711FF5F9381012A97020000938282017A
:100010007390523093021000638402007350107C7E
:10002000970200009382C211739052301701FFDFD4
:10003000130141FD63140100138101E0732540F1B8
:10004000814213030040137101FF6385A2001A91DE
:100050008502D5BF970000009380200863830000CD
:100060008290732540F181450146CD209700FFDF46
:10007000938040F96383000082909702000093828E
:10008000C2007390523003230000F5BF000000004F
:100090008280A14673B306309302400063C55500C9
:1000A0001376350011CA230005000505FD15E34749
:1000B000B0FE731003308280232005001105F11576
:1000C000E34EB0FC73100330828023200300110341
:1000D000E34D73FE828006849702FFDF938282F2F3
:1000E000638C02049702FFDF9382C2F1F32740F191
:1000F000A14673B006300A839703FFDF93838330F2
:100100008A9363037300D137639857021703FF5F25
:10011000130343EF9713FF5F9383C39D6303730040
:100120006D371703FFE71303E3ED9703FFE79383AF
:1001300063ED63037300513FA2808280F322203479
:1001400073231034F3233034D5BF82800684971193
:10015000FF5F93812115930200006311550E9752A2
:100160000000938222941703FF5F1303A3E9971300
:10017000FF5F93832398638C6200635A730003A527
:10018000020091022320A3001103E34A73FE971299
:100190000000938222DF1703FFE71303A3E6970310
:1001A000FFE7938323E6638C6200635A730003A521
:1001B000020091022320A3001103E34A73FE0F10F3
:1001C0000000971200009382E2DB1703FF5F130326
:1001D00063E39703FF5F9383E3E2638C6200635AF8
:1001E000730003A5020091022320A3001103E34A38
:1001F00073FE0F1000001713FF5F1303A38F938389
:10020000419F63577300232003001103E34D73FEE6
:100210001712FF5F1302028E11C20296172500000B
:1002200013056547EF20C042EF20204A1725000044
:100230001305656EEF20C041EF20806D3937FD5604
:1002400073B0463073B04634F327103037270400BC
:100250007D8F09C773B0363073B02630370704007E
:100260007D8F19C373B00618370701001307870283
:10027000F98F89CBF32700300967D98F7390073046
:1002800073503000F327103037072000F98F99C7DB
:10029000F327003093E70720739007300545970553
:1002A00000009385A5211706000013066621312062
:1002B000EF20603BA28082808280411106C2F3223F
:1002C00040F1130300006385620073005010F5BF16
:0A02D000EF00104B924041018280C4
:0C02E000EC0201200A030120FE020120B4
:1002EC00F1653715008093850520130505A66F2051
:1002FC00606237050080130505096F30B048B725DB
:10030C00F4003705008093850540130505096F40FF
:02031C00605E21
:100320002D2D3E20257300005F5F5365634C616295
:100330005F5F000041542B5253540D0A000000002F
:10034000415445300D0A000041542B434950535449
:10035000414D41433F0D0A0050617373776F7264E2
:1003600020636F72726563742E20596F75206D6102
:10037000737465726564207468652066697273744D
:10038000207461736B2E204E6F7720676F20616E33
:1003900064206175746F6D61746520746869732E73
:1003A00020416C736F206E6F746520796F752063C8
:1003B000616E2074616C6B20746F207468652045D9
:1003C0005350207669612073657269616C20746F87
:1003D0006F2E20596F752063616E20616C736F20E2
:1003E0007265736574207468652045535020766982
:1003F000612073657269616C20696620736F6D6539
:100400007468696E6720646F6573206E6F742077FF
:100410006F726B206F75742E0D00000000000000DD
:1004200000000000000000000000000000000000CC
:1004300000000000000000000000000000000000BC
:1004400000000000000000000000000000000000AC
:10045000000000000000000000000000000000009C
:10046000000000000000000000000000000000008C
:10047000000000000000000000000000232D302BD1
:1004800020000000686C4C00656667454647000028
:1004900030313233343536373839414243444546BA
:1004A000000000003031323334353637383961627C
:1004B0006364656600000000C004012000000000C5
:1004C0006C6962676C6F737300000000A6290120DD
:1004D00080290120682901200000000000000000A0
:1004E000AE2B0120CC2B0120982A01206429012069
:1004F0004A2A0120FC290120000000000000000021
:1005000000000000000000000000000000000000EB
:100510000000000000000000262B012038290120E7
:1005200000000000000000000000000000000000CB
:100530007E2D0120902D0120B22D0120D82E0120EA
:10054000E42D0120EE2D0120BE2F0120F22D0120EF
:10055000F62D0120262E0120562E0120862E012068
:10056000922F01209C2E0120AE2E0120B42E0120BE
:10057000BC2E0120342F0120C82F0120003901207A
:10058000000000000000000000000000000000006B
:1005900038390120000000007C3A0120803A012017
:1005A000000000000000000000000000000000004B
:1005B000000000000000000000000000000000003B
:1005C0007A2D012000000000000000000000000063
:1005D0000000000000000000FE3C012000000000C0
:1005E000000000000000000000000000000000000B
:1005F00000000000D23A012000000000CE3D0120A2
:100600000E3E012000000000000000009A3C012086
:10061000143C0120AA3A0120843A01200000000085
:100620000000000000000000000000004E3E01201D
:10063000AE3E0120303C0120B23C0120903F012021
:10064000E03F01209E40012001000000200000004A
:10065000001BB70000366E01010000001F00000003
:10066000030000003F000000010000002000000027
:1006700000366E01006CDC02030000001F00000069
:10068000020000003F000000010000001000000018
:10069000808D5B00001BB700000000001F00000001
:1006A000030000003F0000000100000010000000F7
:1006B000001BB70000366E01010000001F000000A3
:1006C000020000003F0000000100000010000000D8
:1006D00000366E01006CDC02030000001F00000009
:1006E000020000001F0000000100000008000000E0
:1006F000808D5B00001BB700000000001F000000A1
:10070000030000001F0000000100000008000000BE
:10071000001BB70000366E01010000001F00000042
:10072000020000001F00000001000000080000009F
:1007300000366E01006CDC02030000001F000000A8
:10074000020000000F000000010000000400000093
:10075000808D5B00001BB700000000001F00000040
:10076000030000000F000000010000000400000072
:10077000001BB70000366E01010000001F000000E2
:10078000020000000F000000010000000400000053
:1007900000366E01006CDC02030000001F00000048
:1007A000020000000700000001000000020000003D
:1007B000808D5B00001BB700000000001F000000E0
:1007C000020000000F000000010000000200000015
:1007D000001BB70000366E01010000001F00000082
:1007E000010000000F0000000100000002000000F6
:1007F00000366E01006CDC02030000001F000000E8
:1008000001000000070000000200000001000000DD
:10081000808D5B00001BB700000000001F0000007F
:1008200001000000070000000200000001000000BD
:10083000001BB70000366E01010000001F00000021
:1008400001000000030000000200000001000000A1
:1008500000366E01006CDC02030000001F00000087
:1008600003000000FFFFFFFF040000000100000084
:10087000808D5B00001BB700000000001F0000001F
:100880000300000000000000040000000100000060
:10089000001BB70000366E01010000001F000000C1
:1008A00003000000FFFFFFFF040000000100000044
:1008B00000366E01006CDC02030000001F00000027
:1008C00002000000FFFFFFFF060000000100000023
:1008D000808D5B00AAC2A20000000000230000007F
:1008E00001000000020000000600000001000000FE
:1008F000AAC2A200001BB700000000001700000001
:1009000003000000FFFFFFFF0600000001000000E1
:10091000001BB7000024F400010000002F000000BD
:1009200003000000FFFFFFFF0600000001000000C1
:100930000024F40080A8120101000000170000004C
:1009400002000000FFFFFFFF0600000001000000A2
:1009500080A8120155854501020000002300000017
:1009600002000000FFFFFFFF080000000100000080
:10097000808D5B00001BB700000000001F0000001E
:1009800003000000FFFFFFFF08000000010000005F
:10099000001BB70000366E01010000001F000000C0
:1009A00002000000FFFFFFFF080000000100000040
:1009B00000366E01006CDC02030000001F00000026
:1009C00001000000FFFFFFFF0A000000010000001F
:1009D000808D5B00007C920000000000270000007A
:1009E00003000000FFFFFFFF0A00000001000000FD
:1009F000007C9200001BB700000000001300000004
:100A000002000000FFFFFFFF0A00000001000000DD
:100A1000001BB70000F824010100000027000000BF
:100A200002000000FFFFFFFF0A00000001000000BD
:100A300000F8240100366E010100000013000000E0
:100A400001000000FFFFFFFF0A000000010000009E
:100A500000366E0100F0490203000000270000008C
:100A600001000000FFFFFFFF0C000000010000007C
:100A7000808D5B0000127A00000000002F00000053
:100A800003000000FFFFFFFF0C000000010000005A
:100A900000127A00001BB7000000000017000000E1
:100AA00002000000FFFFFFFF0C000000010000003B
:100AB000001BB7000024F400010000002F0000001C
:100AC00002000000FFFFFFFF0C000000010000001B
:100AD0000024F40000366E01010000001700000041
:100AE00001000000FFFFFFFF0C00000001000000FC
:100AF00000366E0180C3C901030000002F00000012
:100B000001000000FFFFFFFF0C00000001000000DB
:100B100080C3C9010048E801030000002F00000065
:100B200001000000FFFFFFFF0E00000001000000B9
:100B3000808D5B00B6A16800000000003700000057
:100B400003000000FFFFFFFF0E0000000100000097
:100B5000B7A16800001BB700000000001B000000E8
:100B600002000000FFFFFFFF0E0000000100000078
:100B7000001BB7006D43D1000100000037000000EA
:100B800002000000FFFFFFFF0E0000000100000058
:100B90006E43D10000366E01010000001B00000012
:100BA00001000000FFFFFFFF0E0000000100000039
:100BB00000366E01DB86A201030000003700000052
:100BC00001000000FFFFFFFF100000000100000017
:100BD000808D5B00001BB700000000001F000000BC
:100BE00002000000FFFFFFFF1000000001000000F6
:100BF000001BB70000366E01010000001F0000005E
:100C000001000000FFFFFFFF1200000001000000D4
:100C1000808D5B00AAC2A20000000000230000003B
:100C200002000000FFFFFFFF1200000001000000B3
:100C3000ABC2A200001BB7000000000011000000C2
:100C400001000000FFFFFFFF120000000100000094
:100C5000001BB7005585450101000000230000007E
:100C600001000000FFFFFFFF140000000100000072
:100C7000808D5B00007C92000000000027000000D7
:100C800002000000FFFFFFFF140000000100000051
:100C9000007C9200001BB700000000001300000061
:100CA00001000000FFFFFFFF140000000100000032
:100CB000001BB70000F8240101000000270000001D
:100CC00001000000FFFFFFFF160000000100000010
:100CD000808D5B00E82A8500000000002B000000EA
:100CE00002000000FFFFFFFF1600000001000000EF
:100CF000E92A8500001BB700000000001500000075
:100D000001000000FFFFFFFF1600000001000000CF
:100D1000001BB700D1550A01010000002B000000A4
:100D200001000000FFFFFFFF1800000001000000AD
:100D3000808D5B0000127A00000000002F00000090
:100D400002000000FFFFFFFF18000000010000008C
:100D500000127A00001BB70000000000170000001E
:100D600001000000FFFFFFFF18000000010000006D
:100D7000001BB7000024F400010000002F00000059
:100D800001000000FFFFFFFF1A000000010000004B
:100D9000808D5B0027AE7000000000003300000073
:100DA00002000000FFFFFFFF1A000000010000002A
:100DB00028AE7000001BB700000000001900000002
:100DC00001000000FFFFFFFF1A000000010000000B
:100DD000001BB7006658E10001000000330000006E
:100DE00001000000FFFFFFFF1C00000001000000E9
:100DF000808D5B00B6A16800000000003700000095
:100E000002000000FFFFFFFF1C00000001000000C7
:100E1000B7A16800001BB700000000001B00000025
:100E200001000000FFFFFFFF1C00000001000000A8
:100E3000001BB7006D43D100010000003700000027
:100E400001000000FFFFFFFF1E0000000100000086
:100E5000808D5B0000A86100000000003B000000E6
:100E600002000000FFFFFFFF1E0000000100000065
:100E700000A86100001BB700000000001D0000007A
:100E800001000000FFFFFFFF1E0000000100000046
:100E9000001BB7000050C300010000003B00000031
:100EA00001000000FFFFFFFF200000000100000024
:100EB000808D5B00001BB700000000001F000000D9
:100EC00001000000FFFFFFFFB6430120D4430120D3
:100ED000E4430120DE43012006440120EC430120CD
:100EE00000440120F4430120324401204244012007
:100EF0003C440120644401204A4401205E44012016
:100F000052440120944201207C420120B042012041
:100F1000C4420120D8420120F44201200C430120A8
:100F200024430120404301205843012076430120FF
:100F3000924301200C4401206C4401208244012092
:100F400018480120D446012060460120FA460120BD
:100F50001A470120A6470120C2450120E84501208B
:100F60000C46012022460120364601204C46012035
:100F70007046012090460120A2460120C246012071
:100F80001D71494681451305210186CEA2CCA6CA12
:100F9000CAC8CEC679267146814548105926B7057C
:100FA000012029469385853228008D26CD24716540
:100FB00013050520192651651305058801223705FB
:100FC000012013054533912237353101130505D032
:100FD00065243705012013050534052A370501204E
:100FE0004547B14601469305210113058534912CEF
:100FF0000144A944B5496D4911269C001375F50FAC
:10100000A2972382A7FE63049500631835017146F9
:101010008145481039260144C5B70504E31E24FD67
:101020004C1028002D2965F537050120130585355D
:10103000052101A081470147B74802103543294ED9
:101040006317C70081C5BE9523800500828003A871
:101050008804E34E08FE014809C53308E50003484B
:10106000080023A4080503A8C804E34E08FE99C994
:1010700089C6630968006307C801B38EF500238041
:101080000E01850705076DBF01112306A1008146EA
:1010900011468145680006CEA30601002317010012
:1010A000513F096513050571C12A372701101C43FB
:1010B00093F70740EDDFF24005618280B72701100A
:1010C00023AE0702985F06051377F7BF98DF985F96
:1010D0001367872398DFD84313670740D8C3B74700
:1010E000021023A0070637070800B8C37D57D8CBE6
:1010F00023AC0700094798CB37D712133357A70201
:10110000130540067D1798C385AA011106CE22CC8F
:1011100026CAAA848D262A840945BD379377F40709
:101120002306F10093577400A306F100916793879B
:10113000071081461146814568002317F100DD3D07
:101140000965130505710D2A372701101C4393F714
:101150000740EDDF8146228681452685E13D096510
:1011600013050571112A372701101C4393F7074017
:10117000EDDFF2406244D244056182805D71A2C419
:1011800037140080A6C2130444B08964CAC04EDE7E
:1011900052DC56DA5AD85ED686C62A89AE89368A95
:1011A00002CE930A200493840471330BC400B70B5E
:1011B00001208347F101639757070346D101834715
:1011C000C10126851E063E9632C602CE75203246E5
:1011D000372701101C4393F70740EDDF0145854693
:1011E000A285893D2685492863160904A2851385B1
:1011F0000B328122B72701109C4393F70740D5FBA0
:101200006317090037050120130585419124B64075
:10121000264496440649F259625AD25A425BB25B5E
:101220006161828005458D35814611466C08014516
:10123000113541B7E39009FC5286DA854A85A92425
:1012400055BF011122CC26CA4AC806CE2E84B284CC
:1012500036893AC65D3D324722856244F2401376B4
:10126000F90F93F5F40F4249D2449376F70F0561D5
:1012700031B737D512138280411102C6B24763E4F9
:10128000A70041018280B24785073EC6C5BF411114
:10129000B707020022C406C6378400109387176779
:1012A0001CC41305803EC93F1C441C444167B24026
:1012B000D98F1CC4224441018280411122C426C21C
:1012C00006C6B727011023AE0702985FB7060300D2
:1012D00037340110558F98DF23240400232604009F
:1012E000AA84413F335595028547B24092447D150B
:1012F00008CC1CC45CC422444101828037370110F1
:101300009307F00F4843E3EFA7FE82802A8309CAC0
:1013100083830500230073007D16050385056DFAA0
:1013200082802A8311C62300B3007D16050365FE63
:10133000828039713EDA2ED232D436D63AD842DCA7
:1013400046DE97F7FE5F9387E77522CC804326CA77
:1013500006CEAA8409C41C4C99E3228551230C446F
:1013600054102686228536C6EF00901DF240624456
:10137000D24421618280011126CA4AC806CE22CCFD
:101380004EC652C4AA842E8901C51C4D91E3892BF7
:101390009C4C804499E32685A12397F7FFFF938710
:1013A000270A631CF402C0408357C400A18BB1C755
:1013B0001C48A1C7FD59294A1C4483450900FD1753
:1013C000B1E91CC463DE07062286A9452685F928F3
:1013D000FD576308F502294535A097F7FFFF93876E
:1013E00027086314F4008044C1B797F7FFFF938781
:1013F0002703E31BF4FAC04445BFA2852685BD221E
:1014000055D97D55F2406244D2444249B249224AFC
:10141000056182801CC4050963D70700184C63CBA3
:10142000E700638945011C401387170018C023801B
:10143000B70059B7228626859528E31F35F7D1B71F
:101440001C401387170018C029472380E70061B7A5
:1014500097F7FE5F93870765AA85884329BF0346F0
:10146000050083C60500050585056313D60065FAEA
:101470003305D6408280AA87850703C7F7FF6DFF33
:101480003385A7407D158280AA8709CA850503C7D1
:10149000F5FF85077D16A38FE7FE65FB3E966393F8
:1014A000C70082808507A38F07FED5BF011122CC1C
:1014B00026CA4AC806CE4EC6AA842E89328401C5E1
:1014C0001C4D91E3312997F7FFFF938767F7631965
:1014D000F406C0401C4C1CC48357C400A18BC9C374
:1014E0001C48BDCF1C4808409379F90F1379F90FB8
:1014F0001D8D5C486346F500A2852685E9242DE50F
:101500001C440505FD171CC41C401387170018C098
:10151000238037015C486389A7008357C400858B0B
:1015200081CBA9476316F900A2852685692C0DEDAC
:10153000F24062444A85D2444249B2490561828000
:1015400097F7FFFF9387C7F16314F400804459B7FE
:1015500097F7FFFF9387C7ECE31EF4F6C0449DBFE7
:10156000A285268521203DDD7D59D9B7411197F708
:10157000FE5F9387275326C2844322C44AC006C60F
:101580002A892E8489C49C4C99E32685912E97F74D
:10159000FFFF9387E7EA631CF402C0400317C4000F
:1015A00093170701C18393F68700B5EE93F6070101
:1015B0009DEEA5472320F900136707042316E400D6
:1015C0007D55B2402244924402494101828097F7FE
:1015D000FFFF9387E7E86314F4008044C1B797F7EF
:1015E000FFFF9387E7E3E31BF4FAC04445BF918B09
:1015F0008DC74C5889C9930744046384F5004A8514
:10160000A923232A04028357C4002322040093F74A
:10161000B7FD2316F4001C481CC08357C40093E791
:1016200087002316F4001C4881EF8357C40013077A
:10163000002093F707286385E700A2854A8585295E
:101640008357C40013F7170005C75C482324040020
:10165000B307F0401CCC1C480145A5F78317C40014
:1016600013F7070839DF93E707042316F40089BF4F
:10167000898B014791E3584818C4F1BF83D7C5004F
:10168000011122CC26CA06CE4AC84EC613F78700DF
:10169000AA842E8465E7D8416347E000B8416344DB
:1016A000E0000145C1A058546DDF03A904009396E2
:1016B000370123A0040063DE060668488357C40090
:1016C000918B99C75C401D8D5C5899C33C401D8D22
:1016D0005C540C502A86814626858297FD57035715
:1016E000C400631DF5009440F54763E4D708B707CD
:1016F00040208507B3D7D700858BA5CF1C48232270
:1017000004001CC09317370163D80700FD5763140A
:10171000F5009C4091E368C84C5823A02401D1D126
:10172000930744046384F50026850521232A0402D7
:101730008DBF0C508546014626850297FD57E31F55
:10174000F5F69C40A5DF75476385E700594763952B
:10175000E70023A02401B1B78357C40093E707042F
:101760002316F400F2406244D2444249B249056172
:101770008280136707042316E400EDB783A90501EF
:10178000E38109F203A905008D8B23A035013309FC
:101790003941014791E3D84918C4E35420F11C545E
:1017A0000C50CA864E8626858297634AA0008357CE
:1017B000C4007D5593E707042316F40065B7AA9982
:1017C0003309A940D9BF9C49B9CF011122CC06CE1B
:1017D0002A8411C51C4D81E72EC61922B24597F700
:1017E000FFFF9387E7C5639BF5004C408397C500D7
:1017F00095C722856244F240056149B597F7FFFF1E
:10180000938707C66394F5000C44CDB797F7FFFFA5
:10181000938707C1E39CF5FC4C44C9BFF240624486
:1018200001450561828001458280411122C406C6BE
:101830002A842316B5002317C50023200500232280
:101840000500232405002322050623280500232A5A
:101850000500232C0500214681451305C505D1341B
:10186000970700009387077A5CD09707000093875B
:10187000677C1CD4971700009387A7805CD49717C8
:1018800000009387678300D01CD8B24022444101F6
:10189000828097050000938545F381AA411126C2F5
:1018A000130680069384F5FFB384C4024AC02E89D0
:1018B00022C406C6938544073D2E2A8419C92320D5
:1018C000050023222501310508C4138684068145BD
:1018D000893C2285B24022449244024941018280DF
:1018E0001C4DBDE3411106C622C497070000938733
:1018F00087FA1CD597F7FE5F9387071B9C43232429
:10190000050423260504232805046314F5008547F0
:101910001CCD2A841D2848C02285052808C422859C
:101920002D2048C4484001469145013708440546EA
:10193000A545E53D48440946C945C53D85471CCCFC
:10194000B2402244410182808280411197F7FE5FBC
:101950009387871526C284434AC006C69C4C22C47E
:101960002A8999E32685AD3F938484048044DC4032
:10197000FD1763D607009C40B9CF8440C5BF03174D
:10198000C40039E7C1778507232204062320040019
:1019900023220400232404005CC423280400232AF7
:1019A0000400232C0400214681451305C405EFF0F3
:1019B0005F97232A0402232C0402232404042326F1
:1019C00004042285B24022449244024941018280AB
:1019D0001304840671BF91454A85C93588C02A849D
:1019E00049FDB1472320F900E9BF797122D44AD0DB
:1019F00052CC56CA5AC85EC606D626D24ECE2A8ABF
:101A0000AE8A130485040149054BFD5B09ECB25015
:101A100022544A8592540259F249624AD24A424BB0
:101A2000B24B45618280044483294400FD1963D48C
:101A300009000040E1BF83D7C400637BFB008397AC
:101A4000E40063877701A6855285829A3369A900ED
:101A500093848406E1BF1971A6DAAE848395E5000C
:101A6000A2DC86DE328463DC050083D7C40023A0B9
:101A7000060093F707089DE39307004015A0300880
:101A800036C67125B246E34205FE7247BD67F98F3F
:101A90007977BA9793B717009CC2F9BF93070004F0
:101AA0001CC0F6506654D65401450961828083D724
:101AB000C500011122CC06CE26CA4AC8898B2E84C5
:101AC00089CF930774041CC01CC885475CC8F240CA
:101AD0006244D24442490561828074003000AA8485
:101AE0009D3FA2452A892685392201ED8317C4002E
:101AF00013F7072069FFF19B93E727002316F400F3
:101B0000C9B797070000938707D99CD48357C400AF
:101B100008C008C893E707082316F400A2475CC86A
:101B2000B24789CF8315E4002685392501C983573B
:101B3000C400F19B93E717002316F4008357C400F9
:101B40003369F9002316240159B7CDC583A7C5FF12
:101B5000411122C406C626C21384C5FF63D3070001
:101B60003E94AA84892597F7FE5F9387A7F89C4344
:101B700089EF2322040097F7FE5F23AD87F6224406
:101B8000B24026859244410105A5637EF4001440CD
:101B90003307D4006396E7009843DC43369718C0B8
:101BA0005CC0D1BFBA87D84319C3E37DE4FE944338
:101BB0003386D700631F86001040B29694C33386E5
:101BC000D700E31EC7FA10435843B29694C3D8C354
:101BD0007DB76375C400B1479CC055B71040B306CC
:101BE000C4006316D70014435843B29614C058C0BB
:101BF000C0C371B78280011126CA93843500F19861
:101C000006CE22CC4AC84EC6A104B14763F7F404FD
:101C1000B14463E6B4042A89792397F7FE5F93877A
:101C200067ED98433A8431E497F7FE5F9387C7ECFA
:101C30009C4381EB81454A85452697F7FE5F23AD9E
:101C4000A7EAA6854A85492EFD5963193507B1478C
:101C50002320F9004A85892B29A0E3DC04FAB14747
:101C60001CC10145F2406244D2444249B249056177
:101C700082801C40858F63C00704AD4663F6F60082
:101C80001CC03E9404C001A85C406314870217F78F
:101C9000FE5F2321F7E64A85012B1305B400930765
:101CA000440061993307F54055DF3A94898F1CC091
:101CB00055BF5CC3CDB722874040B5B7130435008C
:101CC0007198E30185FCB305A4404A853126E31BE6
:101CD00035FBB5BF1C46FD171CC663DA0700184E5E
:101CE00063C5E700A9476394F5006FF02FFC1C4221
:101CF0002E851387170018C22380B7008280011138
:101D000022CC26CA4AC84EC652C406CE2A89AE89FB
:101D10003284B304D6007D5A63149400014509A8A7
:101D2000834504004E864A8575370504E31645FF52
:101D3000F2406244D2444249B249224A056182805B
:101D4000357122CD26CB4AC94EC706CF52C556C3E0
:101D50005AC1DEDEE2DCE6DAAA89AE843289368454
:101D600001C51C4D91E3AD3E97E7FFFF9387476D9B
:101D7000639BF40C83A4490083D7C400A18BF5C7EF
:101D80009C48E5C793070002A304F10293070003F0
:101D900002D22305F10222C6930B500297EAFFFFFD
:101DA000938A0A6E054C294B4A848347040099C3E1
:101DB0006390770FB30C2441638D0C00E6864A864E
:101DC000A6854E852D3FFD576306F51E9256E69675
:101DD00036D283470400638F071CFD571309140094
:101DE00002C802CE3ECA02CCA309010482D48345B4
:101DF000090015465685592E13041900C24759E9A2
:101E000013F7070109C713070002A309E10413F739
:101E1000870009C71307B002A309E104834609003C
:101E20001307A0026380E608F2474A8481462546EC
:101E30000347040093051400130707FD6379E60ABE
:101E4000B5CA3ECE85A897E7FFFF93876761639584
:101E5000F40083A489000DB797E7FFFF9387475CE1
:101E6000E39CF4F083A4C90001BFA6854E85EFF082
:101E7000EFEF09D97D55FA406A44DA444A49BA4934
:101E80002A4A9A4A0A4BF65B665CD65C0D618280F0
:101E9000050421BF330555413315AC00C98F3EC839
:101EA0002289B1B7324793064700184336C66349C3
:101EB00007023ACE034704009307E002631FF704CA
:101EC000034714009307A002631BF702B2470904FB
:101ED000138747009C433AC663C107023ECA35A830
:101EE0003307E04093E727003ACE3EC8E1B7B38717
:101EF000670385462E84BA9725BFFD57C5B70504ED
:101F000002CA814681472546034704009305140011
:101F1000130707FD6376E606F1F2834504000D46DC
:101F200017E5FFFF13054556952411CD97E7FFFFF1
:101F3000938787551D8D93070004B397A7004245EB
:101F400005045D8D2AC883450400194617E5FFFF87
:101F50001305C553130914002304B102052C3DC118
:101F600097E7FEDF9387070A95E74247B247137763
:101F7000071009CF91073EC69257D2973ED22DB592
:101F8000B387670385462E84BA97BDBF9D07E19B43
:101F9000A107D5B7780097060000938686D62686D7
:101FA0000C084E8597000000E7000000FD572A8AC4
:101FB000E314F5FC83D7C40093F70704E39C07EA16
:101FC000125555BD780097060000938686D3268665
:101FD0000C084E85CD24D9BF411122C42A842E85F8
:101FE00023A8019E06C6DD2BFD576317F5009387D6
:101FF000019F9C4391C31CC0B24022444101828096
:10200000411122C42E848395E50006C6B12363499D
:1020100005007C48AA977CC8B240224441018280D6
:102020008357C4007D777D17F98F2316F400EDB731
:1020300083D7C500011122CC26CA4AC84EC606CE97
:1020400093F70710AA842E843289B68991C78395A5
:10205000E5008946014629228357C4007D777D1714
:10206000F98F2316F4008315E4006244F240CE8613
:102070004A86B24942492685D24405613DA84111AC
:1020800022C42E848395E50006C6D928FD57035740
:10209000C400631BF500FD77FD17F98F2316F400CC
:1020A000B2402244410182808567D98F2316F40013
:1020B00068C8FDB78395E5003DA0411122C42A847C
:1020C0002E85B285368623A8019E06C6A923FD5714
:1020D0006317F5009387019F9C4391C31CC0B240D6
:1020E000224441018280411122C42A842E8523A8E2
:1020F000019E06C64129FD576317F5009387019F8E
:102100009C4391C31CC0B2402244410182804111D2
:1021100022C42A842E85B28523A8019E06C6AD2935
:10212000FD576317F5009387019F9C4391C31CC023
:10213000B240224441018280411122C42A842E856A
:1021400023A8019E06C69D21FD576317F5009387BE
:10215000019F9C4391C31CC0B24022444101828034
:10216000411122C42A842E85B285368623A8019E79
:1021700006C68921FD576317F5009387019F9C438D
:1021800091C31CC0B24022444101828093F5F50FF7
:102190002A966314C5000145828083470500E38DBC
:1021A000B7FE0505FDB782808280797156CA9C49C9
:1021B000BA8A984522D426D24ECE52CC06D64AD0E0
:1021C0005AC85EC6AA892E84B284368A63D3E700D1
:1021D000BA879CC00347340419C385079CC01C40C0
:1021E00093F7070281C79C4089079CC0032904001C
:1021F00013796900631A0900130B9401FD5B5C44B9
:102200009840998F634CF9041C408346340493F73B
:102210000702B336D000A5EB13063404D2854E85F1
:10222000829AFD576303F5041C4011469840998B30
:10223000544481446397C700B384E64063D30400E9
:1022400081441C4418486354F700998FBE94014997
:1022500069047D5B63982405014509A885465A8673
:10226000D2854E85829A631E75017D55B2502254E7
:1022700092540259F249624AD24A424BB24B4561EA
:1022800082800509ADBF3307D40013060003A30104
:10229000C7040347540493871600A2978906A381B5
:1022A000E7049DBF85462286D2854E85829AE30E3D
:1022B00065FB050945B7797122D426D24AD04ECEA6
:1022C00006D652CC56CA5AC8B68983C6850193072A
:1022D000E0063289AA842E84138635046380F61EB4
:1022E00063E2D706930730066382F60A63EDD700F0
:1022F000638A061E930780056386F616930A2404F4
:102300002301D40469A8930740066386F600930767
:102310009006E395F6FE1C40084393F607089305E4
:102320004500C1C21C410CC363D807001307D0028B
:10233000B307F040A301E40497E6FFFF93868615F8
:10234000294765A0930730076382F61A63EFD70029
:102350009307F006638FF60493070007E390F6FAFD
:102360009C4193E707029CC109A893075007638229
:10237000F60493078007E393F6F893078007A30218
:10238000F40497E6FFFF93862612DDA01C43938A90
:102390002504938647009C4314C32381F504854795
:1023A000ADA293F607041C410CC3BDDEC207C18772
:1023B000A5BF0C401C4313F80508138547006305AF
:1023C000080008C39C4339A093F5050408C3FDD950
:1023D00083D707001307F006638AE60C97E6FFFF32
:1023E0009386460B2947A30104044C400CC463C5E3
:1023F000050008406D9908C099E3B28A91CDB28A70
:10240000B3F5E702FD1AB69583C505002380BA002F
:10241000B3D5E70263F2E70AA147631EF7001C4049
:10242000858B91CB58401C4863C7E7009307000396
:10243000A38FFAFEFD1A3306564110C84E87CA868E
:102440007000A285268595337D5A6314450D7D5510
:10245000B250225492540259F249624AD24A424B33
:1024600045618280A382D50497E6FFFF93868602AA
:102470000C40084313F805081C41110563000802CD
:1024800008C313F7150001C793E505020CC04147C7
:10249000B9FB0C4093F5F5FD0CC0B1B713F805047A
:1024A00008C3E30008FEC207C183E1BF97E6FFFF50
:1024B000938646FE214705BFAE8799B794411C43DA
:1024C000CC4913F80608138547006306080008C3C3
:1024D0009C438CC301A808C393F606049C43F5DA19
:1024E0002390B70023280400B28A89BF1C43D0413F
:1024F00081459386470014C383AA07005685793126
:1025000001C53305554148C05C401CC8A301040403
:1025100035B714485686CA8526858299E30945F35E
:102520001C40898B8DE7B2474844E353F5F23E8562
:1025300005B785465686CA8526858299E30965F1E1
:10254000050A5C443247998FE345FAFEE9BF014A28
:10255000930A94017D5BF5B7411122C42A842E852C
:10256000B285368623A8019E06C6B928FD57631793
:10257000F5009387019F9C4391C31CC0B240224445
:1025800041018280411106C6C928B24093078005E7
:102590001CC17D5541018280411106C67D28B24093
:1025A000930780FA1CC17D55410182807D1513354A
:1025B00015008280411106C64D20B2409307800568
:1025C0001CC17D5541018280411106C67920B2406F
:1025D000930780051CC17D5541018280411106C6CB
:1025E00022C4938701E0138701606384E702938725
:1025F00081808043B306A40063FCE600AA8522859F
:1026000094C3EFD01FA92285B240224441018280A9
:1026100098C37D54CDBF411106C622C426C285474A
:102620006319F5002E84B384C500631E9400014530
:1026300031A02520930780051CC17D55B24022445E
:10264000924441018280034504000504E124F1BF66
:10265000AA85814601460145F1A897E7FE5F938769
:10266000674488438280411122C406C69707000050
:102670009387C7142A8499C381453D2A97E7FE5F53
:102680009387874288431C5591C382972285EF2008
:10269000A040411197E7FFFF9387C7C522C417E405
:1026A000FFFF130424C51D8C26C206C60984BE8400
:1026B00011E4B24022449244410182807D14931778
:1026C0002400A6979C438297E5B7411197E7FFFF47
:1026D000938747C122C417E4FFFF1304A4C01D8CD5
:1026E00026C24AC006C6098481443E896396840294
:1026F00097E7FFFF938707BF17E4FFFF130484BE2C
:102700001D8C098481443E89639F8400B240224429
:10271000924402494101828093972400CA979C43C6
:1027200085048297E1B793972400CA979C43850458
:102730008297D9BF97E7FE5F9387473C9C432A8ED9
:102740008DE31387419697E7FE5F23A9E73A17E5E4
:10275000FEDF1305258BBA8709C51C4123A6F19E10
:10276000BA87D8437D487D556347E804630E0E025F
:1027700003A887086301080493182700C29823A0C0
:10278000C8000323081005463316E6003363C30070
:102790002320681023A0D80889466317DE0083260B
:1027A0004810558E2322C810930617000A07D4C379
:1027B000BA978CC701458280797152CC56CA5AC8E3
:1027C0005EC606D622D426D24AD04ECE62C42A8B0A
:1027D0002E8A97EAFE5F938A6A32854B03A40A0029
:1027E00011C84440832984081389F4FF8A04A29401
:1027F000635E0900B250225492540259F249624A6F
:10280000D24A424BB24B224C45618280630E0A0091
:10281000639509007D19F114E1BF93172900CE9744
:1028200083A70708E39847FF5840DC407D176318EB
:10283000270323222401F9DF032C440063880900C5
:1028400083A6091033972B01F98E89EE82975840A1
:1028500083A70A00E31487F9E30EF4FA41B723A231
:102860000400D1BF93162900CE968C4283A649104E
:10287000758F01E75A858297D9BF2E858297C1BF90
:10288000B7170080938707B0984315EF411122C412
:1028900026C23704012006C60547B704012098C3A5
:1028A0009384C42E9307042E1304042E63EA970026
:1028B000B24022449244410182801C40110482971C
:1028C000E31D94FEF5B78280B71700809387C7AFEA
:1028D000984315EF411122C426C23704012006C6D1
:1028E0000547B704012098C39384042F9307042F4E
:1028F0001304042F63EA9700B2402244924441013A
:1029000082801C4011048297E31D94FEF5B78280FB
:1029100085BF5DBFAA8537150080130505A629A0D0
:102920001C4103A3070002831C4103A34700028349
:102930001C4103A347010283B71700809387C7AAEE
:10294000370700026383A70001478E05BA95116718
:1029500093074700AE977D5588C3BA9590C194C33D
:10296000014582807D5582806F00B077411106C697
:10297000732540F1EF10107CB24041016F10107BC5
:10298000011106CE2EC6DD3719C9B2450547636869
:10299000B7001C41F24003A3470005610283F240E7
:1029A0007D55056182800111B71700804AC806CEA7
:1029B00022CC26CA4EC69387C7AA01496313F500E5
:1029C0000949444181E82A84B7090080639B2401B6
:1029D00085475CC0F2406244D2444249B249056135
:1029E00082808D4591C09D4583A7890BA2860146B3
:1029F000DC4F1385890B85048297C9BFA9C50111D6
:102A000022CC2EC606CE2A849537B717008093872E
:102A1000C7AAB2456314F402B70700809387870BF7
:102A2000631EF50093F7B5FF8D466399D7001C41EF
:102A30006244F24003A3870205610283F2406244CC
:102A40007D55056182807D558280A9C5011122CC0A
:102A50002EC606CE2A84193FB71700809387C7AACF
:102A6000B2456314F402B70700809387870B631E97
:102A7000F50093F7B5FF8D466399D7001C4162447A
:102A8000F24003A3470205610283F24062447D5590
:102A9000056182807D55828001112EC632C436C206
:102AA00006CE22CC26CAAA84EF00B0632A847D3DDC
:102AB000B71700809387C7AA92462246B24563950E
:102AC000F400854763F88700F2406244D2447D55A4
:102AD00005618280B70700809387870B2A87E315FB
:102AE000F5FE93F7B5FF0D48E39007FF1C436244E2
:102AF000F240D24403A3C701056102833717008067
:102B00001307C7AAB70700026303A7008147B1668E
:102B10001387C6FFE1163E97B697144388430C43CC
:102B2000E39DD5FE8280B71700809387C7AA01472F
:102B30006314F5003707000289476386F50463C80C
:102B4000B70085476382F502FD573E8582808D4739
:102B50006384F5049147E399F5FE81477DD61C42D5
:102B60008A07BA979C43D5B7FD5765D2411122C455
:102B700006C63284613708C04CC0B2402244814747
:102B80003E8541018280FD5769D21C428A07BA976F
:102B900023A00700814755BFFD5745DA1C428A072D
:102BA000BA97054798C30F0080049C43E5B701110D
:102BB00006CE22CC2A84EF10B0582AC67000228597
:102BC00089459537F240624405618280011106CE45
:102BD00022CC2A84EF10D0562AC6700022858D455B
:102BE0009937F240624405618280AA85F32740F15B
:102BF0001397270093874182BA978843F32720349D
:102C00000DC593F7F73F138741819387870E631BA9
:102C1000E500370700808A071307870BBA9703A3DD
:102C2000070002838A079C43029082808280000012
:102C30000000000000000000000000000000000094
:102C40000000000000000000000000000000000084
:102C50000000000000000000000000000000000074
:102C60000000000000000000000000000000000064
:102C70000000000000000000000000000000000054
:102C8000397106DE16DC1ADA1ED82AD62ED432D2D4
:102C900036D03ACE3ECC42CA46C872C676C47AC254
:102CA0007EC0F32740F11397270093874182BA979C
:102CB000944373262034F3271034F32730347327DA
:102CC00050308DC6938741816385F6048147137523
:102CD000F63F635D0606930600086311D50403A75B
:102CE000073983A58739130500080297F250E2528D
:102CF0005253C2533255A255125682567247E2477A
:102D00005248C248324EA24E124F824F2161730088
:102D10002030B70700809387870B55BFAD4663D53A
:102D2000A6001377F70311EB61473307E502BA9763
:102D300003A7070983A587094DBF8946E318D7FA7A
:102D400073277030184383A5C70D45B71307850E49
:102D50000A07BA979C43AA853685829741BF00002F
:102D60000000000000000000000000000000000063
:102D70000000000000000000000001458280F325F3
:102D800000B8732500B0F32700B8E39AF5FE8280FF
:102D900011CD938741816306F50001459355F541B7
:102DA00082803725F40013050540CDBF01458145DC
:102DB00082800111814701483EC406CE42C69387F6
:102DC0004181639CA700B707008003A5471F11C579
:102DD0001C4130008545FC478297F2402245B245B0
:102DE00005618280371500801305C5AA82801D45C4
:102DF00082800D458280011106CE2EC693874181C7
:102E00006391A702B707008083A747197D5599C72B
:102E1000984370008D4578473E850297F2400561E2
:102E200082807D55E5BF011106CE2EC69387418174
:102E30006391A702B707008083A747197D5599C7FB
:102E400098437000894578473E850297F2400561B6
:102E500082807D55E5BF011106CE2EC69387418144
:102E60006391A702B707008083A74719014599C757
:102E700098437000914578473E850297F24005617E
:102E800082800145E5BF938741816384A7000145A6
:102E90008280370500801305850B828083D705006B
:102EA0000D4711458D8B6383E700094582807325AB
:102EB00010348280739015340145828001458280F0
:102EC00041111305400606C6EF10F0274111130506
:102ED000800C06C6EF10302793874181B2862E867C
:102EE000639CA700B707008003A5471F11C51C41BD
:102EF000814503A3070502837D558280411106C6E3
:102F000022C4F32740F101446348F00013972700DF
:102F100093874182BA9780432285613D9307A5003C
:102F200033B5A7003306B50022852244B240BE85E2
:102F300041015DB75C41A9EF930705091307053906
:102F400023A0070023A2070023A40700E107E399B9
:102F5000E7FE373701209307053A9306053D13072F
:102F600007EC98C39107E39EF6FE73275030B7072E
:102F700001209387C713631BF700F3275030B7373F
:102F80000120938707C8F19B7390573085475CC138
:102F90008280938741816392A702AD477D5563CFBD
:102FA000B70009CEB70700809385850E9387870BFE
:102FB0008A05BE9590C1014582807D558280371576
:102FC00000801305C5AA828081EDF3275030B73702
:102FD0000120938707C8F19B739057300145828089
:102FE00085477D55E39DF5FEF3275030B757012007
:102FF0009387079893E71700C5B7732540F1828040
:1030000039712AD61305C01206DE16DC1ADA1ED86C
:103010002ED432D236D03ACE3ECC42CA46C872C640
:1030200076C47AC27EC0EF101012397106DE16DC4B
:103030001ADA1ED82AD62ED432D236D03ACE3ECC88
:1030400042CA46C872C676C47AC27EC0F32740F12F
:103050001397270093874182BA97984319CF938794
:103060004181631FF702B70700809387870B03A78F
:10307000870D83A5070E0D450297F250E252525379
:10308000C2533255A255125682567247E2475248F1
:10309000C248324EA24E124F824F2161730020303F
:1030A0008327000E0290397106DE16DC1ADA1ED86C
:1030B0002AD62ED432D236D03ACE3ECC42CA46C8D8
:1030C00072C676C47AC27EC0F32740F113972700F8
:1030D00093874182BA97984319CF93874181631FA1
:1030E000F702B70700809387870B03A7871383A591
:1030F00007141D450297F250E2525253C253325503
:10310000A255125682567247E2475248C248324E82
:10311000A24E124F824F216173002030832700148A
:103120000290397106DE16DC1ADA1ED82AD62ED4A1
:1031300032D236D03ACE3ECC42CA46C872C676C4E7
:103140007AC27EC0F32740F113972700938741820C
:10315000BA97984319CF93874181631FF702B70746
:1031600000809387870B03A7072183A5872141450B
:103170000297F250E2525253C2533255A2551256A0
:1031800082567247E2475248C248324EA24E124F10
:10319000824F216173002030832780210290397192
:1031A00006DE16DC1ADA1ED82AD62ED432D236D053
:1031B0003ACE3ECC42CA46C872C676C47AC27EC0F7
:1031C000F32740F11397270093874182BA979843DA
:1031D00019CF93874181631FF702B7070080938758
:1031E000870B03A7872283A5072345450297F25043
:1031F000E2525253C2533255A2551256825672476A
:10320000E2475248C248324EA24E124F824F2161CD
:1032100073002030832700230290397106DE16DC0C
:103220001ADA1ED82AD62ED432D236D03ACE3ECC96
:1032300042CA46C872C676C47AC27EC0F32740F13D
:103240001397270093874182BA97984319CF9387A2
:103250004181631FF702B70700809387870B03A79D
:10326000072483A5872449450297F250E25252531E
:10327000C2533255A255125682567247E2475248FF
:10328000C248324EA24E124F824F2161730020304D
:10329000832780240290397106DE16DC1ADA1ED8E4
:1032A0002AD62ED432D236D03ACE3ECC42CA46C8E6
:1032B00072C676C47AC27EC0F32740F11397270006
:1032C00093874182BA97984319CF93874181631FAF
:1032D000F702B70700809387870B03A7872583A58D
:1032E00007264D450297F250E2525253C2533255CF
:1032F000A255125682567247E2475248C248324E91
:10330000A24E124F824F2161730020308327002686
:103310000290397106DE16DC1ADA1ED82AD62ED4AF
:1033200032D236D03ACE3ECC42CA46C872C676C4F5
:103330007AC27EC0F32740F113972700938741821A
:10334000BA97984319CF93874181631FF702B70754
:1033500000809387870B03A7072783A587275145FD
:103360000297F250E2525253C2533255A2551256AE
:1033700082567247E2475248C248324EA24E124F1E
:10338000824F21617300203083278027029039719A
:1033900006DE16DC1ADA1ED82AD62ED432D236D061
:1033A0003ACE3ECC42CA46C872C676C47AC27EC005
:1033B000F32740F11397270093874182BA979843E8
:1033C00019CF93874181631FF702B7070080938766
:1033D000870B03A7872883A5072955450297F25035
:1033E000E2525253C2533255A25512568256724778
:1033F000E2475248C248324EA24E124F824F2161DC
:1034000073002030832700290290397106DE16DC14
:103410001ADA1ED82AD62ED432D236D03ACE3ECCA4
:1034200042CA46C872C676C47AC27EC0F32740F14B
:103430001397270093874182BA97984319CF9387B0
:103440004181631FF702B70700809387870B03A7AB
:10345000072A83A5872A59450297F250E252525310
:10346000C2533255A255125682567247E24752480D
:10347000C248324EA24E124F824F2161730020305B
:103480008327802A0290397106DE16DC1ADA1ED8EC
:103490002AD62ED432D236D03ACE3ECC42CA46C8F4
:1034A00072C676C47AC27EC0F32740F11397270014
:1034B00093874182BA97984319CF93874181631FBD
:1034C000F702B70700809387870B03A7872B83A595
:1034D000072C5D450297F250E2525253C2533255C7
:1034E000A255125682567247E2475248C248324E9F
:1034F000A24E124F824F2161730020308327002C8F
:103500000290397106DE16DC1ADA1ED82AD62ED4BD
:1035100032D236D03ACE3ECC42CA46C872C676C403
:103520007AC27EC0F32740F1139727009387418228
:10353000BA97984319CF93874181631FF702B70762
:1035400000809387870B03A7072D83A5872D6145EF
:103550000297F250E2525253C2533255A2551256BC
:1035600082567247E2475248C248324EA24E124F2C
:10357000824F2161730020308327802D02903971A2
:1035800006DE16DC1ADA1ED82AD62ED432D236D06F
:103590003ACE3ECC42CA46C872C676C47AC27EC013
:1035A000F32740F11397270093874182BA979843F6
:1035B00019CF93874181631FF702B7070080938774
:1035C000870B03A7872E83A5072F65450297F25027
:1035D000E2525253C2533255A25512568256724786
:1035E000E2475248C248324EA24E124F824F2161EA
:1035F000730020308327002F0290397106DE16DC1D
:103600001ADA1ED82AD62ED432D236D03ACE3ECCB2
:1036100042CA46C872C676C47AC27EC0F32740F159
:103620001397270093874182BA97984319CF9387BE
:103630004181631FF702B70700809387870B03A7B9
:10364000073083A5873069450297F250E252525302
:10365000C2533255A255125682567247E24752481B
:10366000C248324EA24E124F824F21617300203069
:10367000832780300290397106DE16DC1ADA1ED8F4
:103680002AD62ED432D236D03ACE3ECC42CA46C802
:1036900072C676C47AC27EC0F32740F11397270022
:1036A00093874182BA97984319CF93874181631FCB
:1036B000F702B70700809387870B03A7873183A59D
:1036C00007326D450297F250E2525253C2533255BF
:1036D000A255125682567247E2475248C248324EAD
:1036E000A24E124F824F2161730020308327003297
:1036F0000290397106DE16DC1ADA1ED82AD62ED4CC
:1037000032D236D03ACE3ECC42CA46C872C676C411
:103710007AC27EC0F32740F1139727009387418236
:10372000BA97984319CF93874181631FF702B70770
:1037300000809387870B03A7073383A587337145E1
:103740000297F250E2525253C2533255A2551256CA
:1037500082567247E2475248C248324EA24E124F3A
:10376000824F2161730020308327803302903971AA
:1037700006DE16DC1ADA1ED82AD62ED432D236D07D
:103780003ACE3ECC42CA46C872C676C47AC27EC021
:10379000F32740F11397270093874182BA97984304
:1037A00019CF93874181631FF702B7070080938782
:1037B000870B03A7873483A5073575450297F25019
:1037C000E2525253C2533255A25512568256724794
:1037D000E2475248C248324EA24E124F824F2161F8
:1037E00073002030832700350290397106DE16DC25
:1037F0001ADA1ED82AD62ED432D236D03ACE3ECCC1
:1038000042CA46C872C676C47AC27EC0F32740F167
:103810001397270093874182BA97984319CF9387CC
:103820004181631FF702B70700809387870B03A7C7
:10383000073683A5873679450297F250E2525253F4
:10384000C2533255A255125682567247E247524829
:10385000C248324EA24E124F824F21617300203077
:10386000832780360290397106DE16DC1ADA1ED8FC
:103870002AD62ED432D236D03ACE3ECC42CA46C810
:1038800072C676C47AC27EC0F32740F11397270030
:1038900093874182BA97984319CF93874181631FD9
:1038A000F702B70700809387870B03A7873783A5A5
:1038B00007387D450297F250E2525253C2533255B7
:1038C000A255125682567247E2475248C248324EBB
:1038D000A24E124F824F216173002030832700389F
:1038E0000290F327503093F7F703FD17094701457E
:1038F0006367F70013878182BA9703C50700828048
:10390000CDB7AD476308F50263CBA7000D478547E8
:103910006305E5006515933715003E8582804147B4
:103920008147E34CE5FE7D478547E358A7FE130535
:1039300005F8D5B78547D5B7011122CC2A842E8545
:1039400026CA4AC84EC606CEAE84B2893689553FCD
:10395000D55701C993070008639AF4085937CD5722
:103960002DCDF2406244D2444249B2493E850561C0
:10397000828023283439232C243909A8E145B384D3
:10398000B402269423283409232C24098147D1BF6B
:10399000138704FFBD46D157E3E5E6FCE145B38458
:1039A000B402B73701209387C7EC26942328F40884
:1039B000232A2409E1BFB73701209387A7BE232C10
:1039C000F40C232E240DD9B7B73701209387C7EF06
:1039D000232CF412232E241355BFE39C09F8B73788
:1039E00001209387C7C22328F43871B7E39809F8F8
:1039F000AD47E385F4FAE3CD97F88D47E38DF4FA0C
:103A00009D47E383F4FCD157A9BF11C99D47638A41
:103A1000F50463E8B7009DC58D47638FF5027D56B9
:103A200015A8AD476382F504E3EBF5FE938705FF28
:103A30003D47E366F7FE8547B395B7000DCEF3A586
:103A4000453029A0A14709C6F3A70730014619A0B0
:103A5000F3B7073032858280A14719CAF3A74730F0
:103A6000F5B793070008D5BF856793870780F5B73B
:103A7000F3B74730C5B7F3B54530E9BF054671B771
:103A8000014661B7B707008093878748639DA70009
:103A900099477D5563EAC700B707000C8A05BE95B4
:103AA00090C1014582807D558280B7070080938751
:103AB00087486387A70081478A05BE958841828031
:103AC000B707000CD5BF41111305C01206C6EF00A1
:103AD00090670111B707008022CC06CE26CA4AC8DB
:103AE0004EC652C4938787482A8401476314F50061
:103AF000130750037D5563D5E502B689328AAE843B
:103B00001399250015C622850946AD3FE145B384CA
:103B1000B40222992324490126942328340F014515
:103B2000F2406244D2444249B249224A056182804D
:103B300022850546813FE145B384B402B7470120A1
:103B40002299938767AC2324F90026942326340F07
:103B5000F9B7B70700809387874801476394A700A8
:103B60003707000CB70720009107B205BE95BA953C
:103B700088418280B7070080938787483707000C09
:103B80006383A7000147B7072000B2059107BE95E0
:103B9000BA9590C18280011106CE22CC26CA2E840D
:103BA000EFF0AFC53335A000B304A040A685228551
:103BB0004D37B7070080938787482A866314F4023D
:103BC0009307400363E0A70293172500A297984745
:103BD00011CBE147B307F5022AC6A29783A5070FC9
:103BE0000297324622856244F240A685D24405619E
:103BF00051B7B7070080938787483707000C638366
:103C0000A7000147B7072000B205BE95BA9590C13D
:103C100001458280011122CC06CE2A842EC6EFF007
:103C2000CFBDAA85228562443246F2400561D1B7F4
:103C3000011122CC26CA4AC84EC652C406CEAA8951
:103C4000328A2E8981440144631B0900F240624498
:103C500026854249D244B249224A0561828009C878
:103C60005286A2854E857137058933158500C98C2A
:103C7000050413591900C9BFB70700809387874807
:103C8000638AA700814737072000B205BA95BE9521
:103C900088418280B707000CFDB7411122C406C6D7
:103CA0002A84EFF08FB5AA8522852244B2404101D3
:103CB000E1B7411106C6C937B240014541018280D2
:103CC00037070080130787483708000C6303A700F5
:103CD0000148135756400A0793977500BA9709672A
:103CE000BA97C2978C4305473316C70089C64D8ED5
:103CF00090C3014582801346F6FF6D8ED5BF01113A
:103D000026CA444106CE22CC4AC84EC652C456C228
:103D10005AC099C8F2406244D2444249B249224A48
:103D2000924A024B05618280B707008093878748DB
:103D3000930A50036303F500814A37090080832703
:103D4000890B2A841305890B9C439309C40E130A1B
:103D5000890B8297130B0040814626868145228578
:103D6000853763DF54010146A6852285213B939761
:103D70002400A29723A4070023A0090023A209007E
:103D80008504E109E39A64FD014681452285953564
:103D900083270A00A2860146DC4FAD451305890B37
:103DA000829783270A0037460120A286DC4F13063C
:103DB00066B9AD451305890B829783270A00AD4587
:103DC0001305890BDC53829785475CC0A1B7B70701
:103DD00000809387874801476314F5001307500359
:103DE000FD5763D4E502011106CE22CC2EC62A84EB
:103DF000EFF0AFA03246AA8585462285D135F24044
:103E0000624481473E85056182803E858280B70796
:103E100000809387874801476314F5001307500318
:103E2000FD5763D4E502011106CE22CC2EC62A84AA
:103E3000EFF0AF9C3246AA85814622855135F2408B
:103E4000624481473E85056182803E858280011102
:103E5000B707008006CE22CC26CA4AC84EC652C436
:103E60009387874801476314F50013075003FD54F7
:103E70006358E600328AAA892E848144014911E8F8
:103E8000F240624426854249D244B249224A056141
:103E90008280630B090085465286CA854E850D35A2
:103EA000058933152501C98C05090580C9BF011194
:103EB000B707008006CE22CC26CA4AC84EC652C4D6
:103EC0009387874801476314F50013075003FD5497
:103ED0006358E600328AAA892E848144014911E898
:103EE000F240624426854249D244B249224A0561E1
:103EF0008280630B090081465286CA854E85C9338C
:103F0000058933152501C98C05090580C9BF83A71B
:103F1000C183411122C406C681451385018282975F
:103F20002A84931714007D5563DF0700635D040046
:103F300037050080130585071374F403EF00D01BC9
:103F4000050433558502B240224441018280C1B745
:103F500083A7C183411106C69145138501828297CB
:103F60009317150063DC0700635A0500B24037055C
:103F700000801305050641016F001018B2407D5501
:103F800041018280F1B713850182828021458280C0
:103F9000411122C42A84484106C6EF00B012B787F7
:103FA000001098479316F70063D706009847C1762C
:103FB000FD16758F98C7378700101C47B70602009B
:103FC000B725F400D58F1CC71C402285938505407A
:103FD000DC43829708442244B24041016F00900EB6
:103FE000011106CE22CC26CA2A844D372AC6228544
:103FF000593F83A4C183B24582942A84B145138575
:10400000018282949317F40063CC07006244F2406B
:10401000D244370500801305450805616F00D00DB7
:104020009317E400AA8463C50706370500801305CB
:104030004508EF00700C9317D40063C6070493572C
:1040400044008566938606C093F7F70313777400E0
:104050008507758C9306F03F0507860763FF860288
:104060003345E50229803305F502854733948700FF
:1040700093F704103345850299E793F4F40385041C
:10408000860433559502F2406244D2440561828031
:10409000370500801305C50669BF7D55EDB77971F9
:1040A00022D426D24AD006D64ECE52CCAA842E890D
:1040B00037840010E13D2A941C401397F7006357A2
:1040C00007001C4041777D17F98F1CC01C401397D7
:1040D000E700634D07023705008013054508EF0030
:1040E000B0010D473307E50291463347D7026344D9
:1040F000E9029547B307F502B3C7D70263CD27019D
:104100001C4037070400D98F1CC021AA3705008046
:104110001305C506E9B737170120370800801307D4
:1041200087EAFD561348F8FF13063004FD551C4777
:10413000636AF5025C4763E7A7021C4383284700D4
:10414000B307F502B3D71703638EB700B3872741D0
:1041500093D8F741B3C7F800B387174163D4070179
:104160003E88B2867D160117E313B6FC1C40E38A35
:10417000C6F8E19B1CC0B7070120960693878764A9
:10418000B697984B10401D8B518F18C0184013776D
:10419000F7C018C0D84B144012071377073F558F4C
:1041A00018C01840FD769386F63F758F18C0984F5B
:1041B000104085662A07938606C0758F518F18C0F8
:1041C000D84FB7870010635C0706D84713670710FE
:1041D000D8C7D847137707FCD8C7D8471367170045
:1041E000D8C71C403707FCFF7D17F98FB71900802F
:1041F0001CC0300085451385C9AAEFE0DF92224933
:10420000B247130A490033392A013E99B24763671E
:10421000F90063932705A2476370FA041C40E3DFAB
:1042200007FE1C4041672685D98F1CC0553BB25004
:10423000225492540259F249624A45618280D4471D
:104240001377F70393F6F6EFD4C7D44793F606FC3B
:10425000D4C7D447558F69B7300085451385C9AA9F
:10426000EFE07F8C65B7B7870010BE9588418280EC
:10427000B7870010BE9590C1328582801387C181B7
:10428000B72701106303A7008147D8430145D98DA3
:10429000CCC382801387C181B72701106303A700B5
:1042A0008147D84393C5F5FF0145F98DCCC3828082
:1042B0009387C1816385A700814788438280B727A0
:1042C0000110E5BF9387C1816385A7008147C84777
:1042D0008280B7270110E5BF1387C181B72701107E
:1042E0006303A7008147984793C5F5FF0145F98D02
:1042F0008CC782801387C181B72701106303A70091
:10430000814798470145D98D8CC782801387C18129
:10431000B72701106303A7008147D8470145D98D0E
:10432000CCC782801387C181B72701106303A70020
:104330008147D84793C5F5FF0145F98DCCC78280E9
:104340001387C181B72701106303A7008147D847AE
:104350000145B98DCCC782801387C181B727011071
:104360006303A7008147D85F0145D98DCCDF985FF3
:10437000598E90DF82801387C181B72701106303B4
:10438000A7008147985F93C5F5FF0145F98D8CDF44
:1043900082801387C181B72701106303A70081477B
:1043A0001D47636CC70237170120130787EC0A0605
:1043B0003A9618420287984F93C5F5FF6D8F98CFB4
:1043C00098536D8F98D398576D8F98D7985BF98DC8
:1043D0008CDB21A0984FD98D8CCF01458280984FDE
:1043E0004D8F98CF9853D98D8CD3C5BF9857D98D01
:1043F0008CD7E5B7984F4D8F98CF98534D8F98D362
:1044000098574D8F98D7985BD98DD9B71387C181AD
:10441000B72701106303A70081477D161947636D15
:10442000C70037170120130787EE0A063A9618428D
:104430000287D84FD98DCCCF01458280D84F4D8F80
:10444000D8CFD853D98DCCD3C5BFD857D98DCCD7D9
:10445000E5B7D84F4D8FD8CFD8534D8FD8D3D85735
:104460004D8FD8D7D85BD98DCCDBF9B79387C18175
:104470006384A700014582803705008013058548C5
:1044800082809387C1816398A710214563860510B8
:10449000854725456382F51089472945638EF50ECA
:1044A0008D472D45638AF50E914731456386F50E9C
:1044B000954735456382F50E99473945638EF50C6E
:1044C0009D473D45638AF50CA14741456386F50C40
:1044D000A54745456382F50CA9474945638EF50A12
:1044E000AD474D45638AF50AB14751456386F50AE4
:1044F000B54755456382F50AB9475945638EF508B6
:10450000BD475D45638AF508C14761456386F50887
:10451000C54765456382F508C9476945638EF50659
:10452000CD476D45638AF506D14771456386F5062B
:10453000D54775456382F506D9477945638EF504FD
:10454000DD477D45638AF504E14713050002638575
:10455000F504E547130510026380F504E9471305E8
:104560002002638BF502ED47130530026386F502E6
:10457000F147130540026381F502F5476D45638DF0
:10458000F500F94771456389F500FD4701456395DD
:10459000F5007545828001458280B71700809387BA
:1045A00007A6630DF50037170080130707A8B73774
:1045B00002106303E50081473E858280B737011012
:1045C000E5BFB7170080938707A6630AF500B71702
:1045D0000080938707A86304F500014582803705B2
:1045E0000080130585488280B7170080938707A64F
:1045F000630CF50037170080130707A89147630382
:10460000E50081473E8582808D47EDBF411106C69A
:1046100069371C49B24093E717001CC901454101A5
:104620008280411106C6953F1C49B240F99B1CC9C6
:10463000014541018280411106C685371C49B240BF
:1046400093E727001CC9014541018280411106C63C
:10465000A9371C49B240F59B1CC901454101828024
:10466000411106C61D3F0841B2407D814101828053
:10467000011106CE2EC61537B2451C453707070077
:10468000C205F240F98DDD8D0CC5014505618280C2
:10469000411106C619370845B24041811D894101C3
:1046A0008280011106CE2EC6CD3DB2455C4537074E
:1046B0000700C205F240F98DDD8D4CC5014505614D
:1046C0008280411106C6D13D4845B24041811D89D5
:1046D00041018280411122C426C24AC006C62A89ED
:1046E000AE84653D2A844A85A53F75FD04C0B2406D
:1046F0002244924402494101828001112EC606CE15
:10470000693D5841B2459377F70F63530700FD5752
:10471000F2409CC1014505618280484182800111BF
:1047200026CA06CE22CCAA848D3DB7170080938777
:1047300007A6638DF404B7170080938707A86387E3
:10474000F40481471845B706F9FFFD16758F18C5A3
:104750001845C166558F18C55849058B75DF9843B4
:1047600000453E8518430988133414000297250438
:104770003305A402C04002C633558502B24763CC5C
:10478000A700F2406244D24405618280B7070080EE
:104790009387070945BF0100B24785073EC6F9BFA9
:1047A0004C416FE0EF98B7170080938707A6630B23
:1047B000F500B7170080938707A86305F5004CC183
:1047C00001458280411106C622C426C24AC02E84F9
:1047D000AA84E1332A893705008083270509C0C0F0
:1047E000130505099C43829733458502B240224454
:1047F00092447D15232CA90083278900014593E766
:1048000017002324F9008327C90093E71700232604
:10481000F90002494101828001114AC8371900801C
:1048200022CC4EC606CE26CA130909A62A84AE8912
:1048300063092501B7170080938707A88144631E89
:10484000F502B704008093840409C840B7470120EB
:104850009387E7711CC49305840040C45120C8C0ED
:10486000B747012088449387077A5CC800CC93053A
:104870004401BD2088C49384C181CE852285EFE0A8
:104880002F8B95C837060300630B2401B7170080F0
:10489000938707A8370684006303F40001469C4011
:1048A0006244F2404249B24903A347022685D244FA
:1048B000814505610283F2406244D2444249B249D3
:1048C00005618280411122C406C62A8409E4B240EF
:1048D0002244410182801C40484082970044FDB739
:1048E00023A40500AA8701E52E858280BA87984710
:1048F00075FF8CC7AA85CDBF1C4103A307000283A7
:10490000011122CC2A84484106CE26CA2EC65D3F1C
:104910001C40B2452285DC438297AA8408445D3757
:10492000F24062442685D244056182801C4103A383
:10493000C702028301E503A541848280014582808C
:10494000732540F182800100FDBF000000000000DF
:104950000000000000000000000000000000000057
:104960000000000000000000000000000000000047
:104970000000000000000000000000000000000037
:104980006FE00FE86FE0CFE76FE08FE76FE0EFE9F0
:104990006FE00FE76FE0CFE66FE08FE66FE0AFF01C
:1049A0006FE00FE66FE0CFE56FE08FE56FE04FE57A
:1049B0006FE00FE56FE0CFE46FE08FE46FE04FE46E
:1049C0006FE02FF66FE0AFFD6FE03F856FE0BF8CCB
:1049D0006FE03F946FE0BF9B6FE03FA36FE0BFAA23
:1049E0006FE03FB26FE0BFB96FE03FC16FE0BFC89B
:1049F0006FE03FD06FE0BFD76FE03FDF6FE0BFE613
:104A0000B7070080938707066308F502B7070080A1
:104A1000938787076307F502370700801307C709E5
:104A2000A1676309E500370700801307870A63035E
:104A3000E50081473E858280B727F40093870740D1
:104A4000D5BFB7A74A0493870720EDB7B707008003
:104A5000938707066308F502B707008093878707E7
:104A60006307F502370700801307C709A1676309C9
:104A7000E500370700801307870A6303E5008147D5
:104A80003E858280B727F40093870740D5BFB7A73C
:0E4A90004A0493870720EDB7411106C66D3525
:104AA000000000003C0401205C0401201C040120E3
:104AB00000000000000000000000000000000000F6
:104AC00000000000000000000000000000000000E6
:104AD00000000000000000000000000000000000D6
:104AE00000000000000000000000000000000000C6
:104AF00000000000000000000000000000000000B6
:104B0000E80A00800000000000000000D40A0080D5
:104B10000000000000000000E80A00800000000023
:104B200000000000CC0A008000000000000000002F
:104B3000400601200000000000000000E80A00809C
:104B40000000000000000000E80A008000000000F3
:104B500000000000000000007405012000000000BB
:104B60000000000000000000000000000000000045
:104B70000000000000000000000000000000000035
:104B80000000000000000000000000000000000025
:104B90000000000000000000000000000000000015
:104F20000000000000000000D80501200000000083
:104F30000000000000000000000000000000000071
:104F40000000000000000000000000000000000061
:104F50000000000000000000000000000000000051
:104F60000000000000000000000000000000000041
:10550000400F01200000000000000000000000002B
:10551000000000000000000000000000000000008B
:10552000400F01200000000000000000000000000B
:10553000000000000000000000000000000000006B
:105540000000008000000080A0100080CC0401203A
:10555000000000003005012000000000040F0120C1
:10556000DC0A0080B40A0080010304000E3F012021
:105570004E3F0120503F0120843F01206642012020
:1055800070420120B40A0080004A01204C4A0120E8
:0400000520010000D6
:00000001FF
