:020000042001D9
:100000009721FF5F938101401741FF5F130181FF3B
:10001000970200009382420173905230EF00B04F7C
:1000200001A00100731001341741FF5F130181FD2E
:10003000197106C0F320003406C2F320103486DEA6
:100040000EC412C616C81ACA1ECC22CE26D02AD278
:100050002ED432D636D83ADA3EDC42DEC6C0CAC228
:10006000CEC4D2C6D6C8DACADECCE2CEE6D0EAD258
:10007000EED4F2D6F6D8FADAFEDC73252034F32576
:100080001034732630348A866F00C0288D42AE0249
:1000900073B002308322C50773901234832F850713
:1000A000032F4507832E0507032EC506832D8506DE
:1000B000032D4506832C0506032CC505832B8505DA
:1000C000032B4505832A0505032AC50483298504D6
:1000D00003294504832805040328C5031C5D5859DA
:1000E000145950550C550451404D83238501032369
:1000F0004501832205010322C500832185000321D8
:0C010000450083200500485173002030AA
:10010C0001112306A100814668001146814506CEE7
:10011C00A306010023170100EF00502A09651305FF
:10012C000571F1222945752675DDF2400561828045
:10013C00411106C6EF009023B24029454101A1AE02
:10014C00011106CE22CC26CA4AC82A89EF001032E9
:10015C002A84094575379374F40F93F7F407230633
:10016C00F10091676800938707101D808146114646
:10017C008145A30681002317F100EF0030240965A7
:10018C0013050571AD222945A92675DD4A858146E1
:10019C0026868145EF009022096513050571812A99
:1001AC002945052E75DDF2406244D2444249056171
:1001BC008280397152D4373A008026DA4AD84ED62A
:1001CC0056D25AD05ECE62CC66CA930B0A0009692D
:1001DC0006DE22DC02C6814793092004AA8A2E8BF4
:1001EC00B68C814413090971B29B371C0120639AA8
:1001FC0037050344D1008347C10011461E048145D5
:10020C0068003E94EF0070204A85D5202945D12402
:10021C0075DD014585461376F40F93050A00EF0052
:10022C00F0194A85E92063880A0413841400630AD0
:10023C009B04A2842945712C05C18347F100E38AF4
:10024C0037FB0545753D814611466C000145EF00B5
:10025C00F0168347F100E5B7638C0A02F250625442
:10026C00D2544259B259225A925A025BF24B624C06
:10027C00D24C2161828093050A0013054CE34D2971
:10028C0055BF6686DE855685EF00F01AA2845DB7F1
:10029C00371501201305C5F76129C9B7011122CC07
:1002AC0026CA4AC84EC606CE2E84B2843689BA896E
:1002BC00413D22856244F240CE864A86B24942498B
:1002CC00A685D2440561F5B59377350081CB83556E
:1002DC00050037150120130585E599A90C41371543
:1002EC000120130585E6A9A137D51213828041118F
:1002FC0002C6B24763F8A700B24785073EC6B247AD
:10030C00E3ECA7FE4101828001114AC806CE22CC43
:10031C0026CA4EC689472E89630FF502A147AA84C7
:10032C006309F50485476300F504371501201305AF
:10033C0045F0B289F52E37150120A6851305C5F1B8
:10034C00C52E37150120130505F34E86CA85CD261B
:10035C004A859D3F01A0371501201305C5E9C92E1B
:10036C004A859D3701A037150120130585E7C9265D
:10037C0001A0FC5ED05219479107FCDE36848456EE
:10038C0083A9C602636BC700371701209317260099
:10039C001307C7E3BA979C43828737150120CA8598
:1003AC00130505EE712601A06244F240D244424985
:1003BC00B249056181A303C50400EF003013228507
:1003CC00C13103A701C0B737008093870700998F0D
:1003DC009CC0228575319C400567E3FCE7FE23A099
:1003EC00F1C0C5BFEF00701148D022855139268568
:1003FC00EF00D00763083501371501201305C5EB55
:10040C00052ECD292685EF00700C22859539B7076E
:10041C00020037870010938717671CC7411102C66B
:10042C0032479307703E63EAE7001307703EB2470A
:10043C0085073EC6B247E37CF7FEB78700109847A6
:10044C0093868700E35D07FE9C474167D98F9CC26A
:10045C004101828037270110145F85473395A7002F
:10046C001345F5FF758D08DF8280B727011023AE89
:10047C00070223A007048280411122C406C62A84E5
:10048C00D13F054533158500B2402244B7270110F2
:10049C0088C741018280411122C406C62A845D3F6F
:1004AC00054533158500B2402244B7270110C8C357
:1004BC00410182808547372701103395A7005C479F
:1004CC0081C55D8D48C782801345F5FF7D8D48C77A
:1004DC008280B7270110984385473395A700798D03
:1004EC003335A000828005476389E50085C58946C0
:1004FC00B317A700639AD500B1BFB7260110D85E19
:10050C00B397A5005D8FD8DE372701100C5FCD8F18
:10051C001CDF8280B7260110D05EB317A70013C76B
:10052C00F7FF718FD8DE372701100C5FCD8F1CDFE2
:10053C00828039714AD806DE22DC26DA4ED652D4B5
:10054C002E8951E593070003A30EF100937749011F
:10055C008549B337F000137A2900A544BE99630D81
:10056C000A0A93770901F9E393774900E9EB63F9F8
:10057C00C902B309364101441305000363140A0090
:10058C00130500020504EF006076E31734FF6319CE
:10059C000A0093770901D1E7137949006319090A15
:1005AC005808A547330497001309E10163E9970044
:1005BC00034504000504EF006073E31B24FFF250B5
:1005CC006254D2544259B259225A21618280B718CE
:1005DC0001209306D101A5449388C81029472543CF
:1005EC0019A0C2842E85B377E502FD16B309974096
:1005FC001388F4FFC69783C70700B355E502A380A1
:10060C00F600E360A3FE93774901B337F000137A49
:10061C002900BE99E3170AF4E3EDC9F493770901B5
:10062C00A5DF1305D002EF00606C9DBF1305D0024F
:10063C0032C6EF00A06B3246E3EDC9F295B7130555
:10064C00B00232C665253246E3E5C9F291BF130507
:10065C00B002692DB1B739714AD82E89B71501206E
:10066C0006DE22DC26DA4ED652D4340801479385B6
:10067C00C51013080002B357E500BD8BAE9783C7B6
:10068C000700FD1611072384F600E31607FF3C084C
:10069C00A1499306000303C7070085076316D70615
:1006AC00FD19E39A09FE1D4485499377890089C792
:1006BC00937729008909A5E763F1C902B30936418B
:1006CC00137A290081441305000363140A001305EF
:1006DC0000028504212DE39899FE1379A900A14706
:1006EC006308F9023C083E94938487000345040098
:1006FC000504ED2BE39C84FEF2506254D254425913
:10070C00B259225A2161828021443304344171BF91
:10071C0013050003E12B13058007C92BE1B7130563
:10072C00000332C6E12313058007C923324669B79B
:10073C001D714ED6BECAB7190120DC0022DC4AD886
:10074C0052D456D206DE26DA5AD05ECE2A84AEC2F7
:10075C00B2C4B6C6BAC8C2CCC6CE3EC61309500285
:10076C00130A5005938949FBA54A0345040001C9A6
:10077C006302250305049D2B0345040075F9F25013
:10078C006254D2544259B259225A925A025BF24BD9
:10079C002561828003471400014B814593061400A8
:1007AC0079DF9307D7FD93F7F70F636DFA0C8A0780
:1007BC00CE979C438287B2475A86884391073EC6A0
:1007CC00593D09045DB7B247B706008098439107BD
:1007DC003EC6630CD70C3A856349070C5A86913B8D
:1007EC00090461B7B247090403C5070091073EC667
:1007FC00F529A5BF63000B0C03472400368479BF91
:10080C000347240093E52500368449BF03472400A1
:10081C0093E54500368459B713055002C1290904E4
:10082C00A9B70347240093E58500368485BFB247FA
:10083C005A860904884391073EC6E5393DB7B2474D
:10084C00844391073EC603C504004DC1814785070B
:10085C003387F400034707007DFB63FE6701330B0E
:10086C00FB40814B850B130500024921E31C7BFFE8
:10087C0003C5040039D58504952903C5040065FD1D
:10088C000904E5B51305C00395211305F003B92937
:10089C0013050002A12913055002892903451400F0
:1008AC00B1211305E0039921D9BD93E50501330569
:1008BC00E0402DB7130B07FD034724003684930744
:1008CC0007FD93F7F70FE3EBFAEC13162B00329BB3
:1008DC000504060B3A9B03471400130B0BFD9307FF
:1008EC0007FD93F7F70FE3F2FAFE4DBDE31B0BF692
:1008FC000904A5BD89679387078073A00730B717D4
:10090C0001209387679F7390173473002030828087
:10091C004111B727000806C622C426C2AA859387B0
:10092C000780238007000564B714000813060480B1
:10093C0013850400F5240F00F00F9384040093D763
:10094C0024007390073BB72700089387070089831F
:10095C007390173BC167938707F073B0073A130482
:10096C0004C07320043AB70700809387070089837B
:10097C007390473B938701C01387C7FF098373109C
:10098C00573B89837390673B930700F073B0173A1A
:10099C00B7170800938707F073A0173A03A701C095
:1009AC00B7370080938707003387E74009837310BC
:1009BC00273B1387C7FF09837310373B370700FFAB
:1009CC007330073A3707000B7320073A0967130790
:1009DC00078073300730739014343E8173002030DD
:1009EC00B2402244924441018280B73700805D714D
:1009FC00938717103EC28567938707803EC4E167D3
:100A0C0062D46ECE371C0120B74D00809387076AE5
:100A1C00A6C2CAC04EDE52DC56DA5AD85ED66AD0AE
:100A2C0086C6A2C466D2B71B0120371B0120B71A99
:100A3C000120371A0120B719012037190120130C96
:100A4C000C12371D0120938D0D90C5443EC61385A5
:100A5C008B16F93913054B18E13913854A19C93925
:100A6C0013054A1BF1311385891CD9311305891DD6
:100A7C00C13161249307D5F993F7F70F63EBF40CAD
:100A8C008A07E2979C438287B71701201385C732E8
:100A9C00453175BFB71701201385C731513945BF93
:100AAC00B71701201385C72D613155B7B717012032
:100ABC0013854727B5390145914C2A842204352CDE
:100ACC00FD1C498CE39C0CFEB737008022851384F7
:100ADC0007109247B38CA700A24763E3A708312CF9
:100AEC002300A4000504E31C94FFB7170120138511
:100AFC00072B3D3983A70D00B9DBB71701201385F0
:100B0C00072C3D31B737008013850710113581B79D
:100B1C00B71701201385C723213915BF13058D1E67
:100B2C0001393245EFF0AFFCB717012013850721CF
:100B3C000131B71701201385C7F7DD3EB717012028
:100B4C0013854722F536B71701201385C722CD36FA
:100B5C00FDBDB7170120AA8513850738D13EC5BD49
:100B6C00B717012013854729E136D5B541118145C9
:100B7C000D4506C6EFF03F9781451145EFF0BF9646
:100B8C0081451545EFF03F9625458145EFF0BF9522
:100B9C00B747021023A0070637070800B8C37D57D4
:100BAC00D8CB23AC0700094798CBB2401307F07C95
:100BBC0098C31305400641016FF06FF331C2B308BF
:100BCC00C5002A880146B7470210354EA94EB847D2
:100BDC00E34F07FE014719C103470800B8C7F847A0
:100BEC00E34F07FE99C989C66309C7016307D7019B
:100BFC003383C5002300E30005060508E31918FD3F
:100C0C0081C52E9623000600828093F5F50FB3075D
:100C1C00C50011C60505A30FB5FEE31DF5FE8280C8
:100C2C0011CA2A96850583C7F5FF0505A30FF5FEA6
:100C3C00E31AC5FE828083C7050089CF01CE2A96B0
:100C4C0019A06309C5000505A30FF5FE850583C72B
:100C5C000500E5FB8280834705008505050589C7EE
:100C6C0003C7F5FF998FE5DB3E858280834705003E
:100C7C0091CB814785073307F500034707007DFBC0
:100C8C003E85828081473E858280411126C2814506
:100C9C00AA84414506C622C4EFF0FF843734011004
:100CAC0081454545EFF03F842324040023260400AE
:100CBC00EFF08FE3335595028547B24092447D1592
:100CCC0008CC1CC45CC4224441018280034605004C
:100CDC0009CE93061500373701101C43E3CF07FEEE
:100CEC0010C3850603C6F6FF6DFA828037370110F4
:100CFC001C43E3CF07FE08C38280B7370110C843FB
:0A0D0C00E34F05FE1375F50F82801A
:100D160037350080B7470080130605009387479054
:100D26003386C740B76753651D719387F7F53EC491
:100D3600B7576162938737C63EC699679387F7F5BB
:100D460081451305050086CEA2CCA6CACAC8CEC662
:100D5600D2C43EC802CA02CC02CE02D0553D938709
:100D660041C0138601C0B71501203386C74093855D
:100D7600053A138501C0453D714681452800493D28
:100D86007146814548106935EFF0CFE8EFF04FEE38
:100D9600716513050520ED3DEFF0EFB9371501201C
:100DA600130505F5EFF02FBA37353101130505D0D8
:100DB600EFF04FD4371501201305C5F5EFF0AFB8A6
:100DC600371501204547B146014693052101130514
:100DD60045F6EFF00FCD37150120130545F7A13A7B
:100DE6000144371A0120A9443549ED4919A00D35AA
:100DF6000144393798002297AA872302A7FE714635
:100E060081454810E38597FEE38327FF0504E31237
:100E160034FF4C102800993509C5714681454810A4
:0C0E2600F9B713050AF8013AE136C5BF20
:100E34002D2D3E2025730000A6030120B4030120BC
:100E4400C2030120FA030120F0030120E203012080
:100E5400CE030120696E7374723A203078253034E1
:100E6400780D0A00696E7374723A20307825303830
:100E7400780D0A00696E737472756374696F6E20FD
:100E8400616363657373206661756C742040203000
:100E940078253038780D0A00696C6C6567616C20C0
:100EA400696E737472756374696F6E206174203037
:100EB40078253038783A200077726F6E67206C6539
:100EC4006E67746820676976656E20746F2075613B
:100ED40072745F7075747374720D0A00556E6B6E64
:100EE4006F776E2073797363616C6C206964204042
:100EF400203078253038783A2025640D0A00000027
:100F0400457863657074696F6E206F63637572658D
:100F1400642E0D0A000000006D63617573653A204C
:100F24003078253038780D0A000000006D65706354
:100F34003A202020307825303878096D7476616C39
:100F44003A20203078253038780D0A0041542B524D
:100F540053540D0A00000000415445300D0A0000AE
:100F640041542B4349505354414D41433F0D0A00D2
:100F740057656C636F6D652E0D0A000047726565D9
:100F840074696E67732050726F666573736F722035
:100F940046616C6B656E2E205368616C6C207765BE
:100FA40020706C617920612067616D653F0D0A00D6
:100FB4002E08012090080120240801209008012017
:100FC4009008012090080120900801209008012039
:100FD40018080120900801209008012090080120A1
:100FE400900801200C0801200008012000080120BD
:100FF4000008012000080120000801200008012049
:1010040000080120000801200008012090080120A8
:1010140090080120900801209008012090080120E8
:1010240090080120900801209008012090080120D8
:1010340090080120900801209008012090080120C8
:1010440090080120900801209008012090080120B8
:1010540090080120900801209008012090080120A8
:101064009008012090080120900801209008012098
:101074009008012090080120900801209008012088
:101084009008012090080120900801209008012078
:101094009008012090080120900801209008012068
:1010A4009008012090080120900801209008012058
:1010B400F0070120D20701209008012090080120A8
:1010C4009008012090080120D207012090080120F7
:1010D4009008012090080120900801209008012028
:1010E40090080120C20701209008012090080120E7
:1010F4004A080120900801203A08012090080120A4
:1011040090080120C207012030313233343536379C
:10111400383961626364656600000000280B0120B1
:101124005E0B01205E0B01205E0B01201C0B0120D5
:101134005E0B01205E0B01205E0B01205E0B012083
:10114400B80A0120AC0A01205E0B01205E0B0120CD
:10115400A00A01205E0B01205E0B01205E0B012022
:10116400940A01205768617420646F20796F752098
:1011740077616E7420746F20706C61793F0D0A0082
:101184000963202D2043686573730D0A0000000075
:101194000967202D20476C6F62616C20546865726A
:1011A4006D6F6E75636C656172205761720D0A0014
:1011B400096D202D204D696E6573776565706572C4
:1011C4000D0A00000970202D2050696E67506F6E63
:1011D400670D0A000974202D205465747269730D1B
:1011E4000A000000416C726967687420426F626291
:1011F40079204669736865722E0D0A4C6F616469C3
:101204006E672043686573732E2E2E00446F6E65DF
:101214002E20596F75206C6F73742E0D0A00000018
:10122400426573742C0D0A004D69636861696C2012
:1012340054616C0D0A000000536F7272792C20798E
:101244006F752073686F756C64206B6E6F77206E9A
:101254006F7420746F20706C6179207468617420DD
:1012640067616D652077697468206D652E0D0A00CD
:10127400536F2C20796F752062726F7567687420C4
:10128400796F7572206F776E2C2068653F0D0A00A8
:1012940047616D6520697320746F6F2062696720F0
:1012A400666F72206D650D0A0000000047616D6570
:1012B4002072656365697665640D0A005374617212
:1012C40074696E672047616D652023637573746F5D
:1012D4006D4D6164650D0A0057656972642E204D79
:1012E400696E6573776565706572206E6F742066CC
:1012F4006F756E642C20736F6D656F6E65206D75F0
:10130400737420686176652064656C657465642017
:1013140069742E0D0A00000050616E672E2049206A
:1013240077696E2E0D0A000053696E6365204A6F5B
:101334006E6173204E657562617565722073746F9A
:1013440070706564206279206C617374206D6F6EB7
:101354007468204920646F6E27742077616E74204E
:10136400746F20706C6179205465747269732061A4
:101374006E796D6F72652E0D0A00000072656365EB
:101384006976656420756E6B6E6F776E20636F6D22
:0C1394006D616E643A2025630D0A0000B4
:0413A0000008000041
:0400000520010000D6
:00000001FF
