:020000042001D9
:100000009721FF5F93814100739001341741FF5F97
:10001000130141FF970200009382820A73905230CD
:10002000EF00906401A08D42AE0273B0023083A253
:10003000C1077390123423A0210083AF810703AF5F
:10004000410783AE010703AEC10683AD810603AD50
:10005000410683AC010603ACC10583AB810503AB4C
:10006000410583AA010503AAC10483A9810403A948
:10007000410483A8010403A8C10383A7810303A744
:10008000410383A6010303A6C10283A5810203A540
:10009000410283A4010203A4C10183A3810103A33C
:1000A000410183A2010103A2C10003A1810083A039
:1000B0004100F3910134730020300000F3910134CA
:1000C00023A2110023A4210023A6410023A851004C
:1000D00023AA610023AC710023AE810023A091020A
:1000E00023A2A10223A4B10223A6C10223A8D10204
:1000F00023AAE10223ACF10223AE010323A01105E0
:1001000023A2210523A4310523A6410523A85105D7
:1001100023AA610523AC710523AE810523A09107B5
:1001200023A2A10723A4B10723A6C10723A8D107AF
:1001300023AAE10723ACF107F325103423AEB1065F
:1001400003A1010073252034732630348E8683A2E8
:04015000010882829E
:1001540001112306A100814668001146814506CE9F
:10016400A306010023170100EF00F03A0965130507
:100174000571F1222945BD2175DDF24005618280BA
:10018400411106C6EF003034B2402945410129A986
:10019400011106CE22CC26CA4AC82A89EF00B042F1
:1001A4002A84094575379374F40F93F7F4072306EB
:1001B400F10091676800938707101D8081461146FE
:1001C4008145A30681002317F100EF00D0340965AF
:1001D40013050571AD222945312175DD4A85814616
:1001E40026868145EF003033096513050571812AA0
:1001F4002945CD2E75DDF2406244D2444249056161
:100204008280397152D4373A008026DA4AD84ED6E1
:1002140056D25AD05ECE62CC66CA930B0A000969E4
:1002240006DE22DC02C6814793092004AA8A2E8BAB
:10023400B68C814413090971B29B371C0120639A5F
:1002440037050344D1008347C10011461E0481458C
:1002540068003E94EF0010314A85D520294559267F
:1002640075DD014585461376F40F93050A00EF000A
:10027400902A4A85E92063880A0413841400630AD7
:100284009B04A2842945B92E05C18347F100E38A62
:1002940037FB0545753D814611466C000145EF006D
:1002A40090278347F100E5B7638C0A02F250625449
:1002B400D2544259B259225A925A025BF24B624CBE
:1002C400D24C2161828093050A0013058CF8A52B7A
:1002D40055BF6686DE855685EF00902BA2845DB7F8
:1002E400371501201305050DB92BC9B7011122CC0F
:1002F40026CA4AC84EC606CE2E84B2843689BA8926
:10030400413D22856244F240CE864A86B249424942
:10031400A685D2440561F5B59377350081CB835525
:100324000500371501201305C5FA31AB0C4137150B
:1003340001201305C5FB01AB37D51213828041118F
:1003440002C6B24763F8A700B24785073EC6B24764
:10035400E3ECA7FE4101828071714AD106D722D510
:1003640026D34ECF52CD89472E89630FF502A1477C
:100374002A846309F50485476300F50437150120D1
:1003840013058505B284C12137150120A285130503
:100394000507552937150120130545082686CA8502
:1003A4005D214A85953F01A037150120130505FFFE
:1003B40059294A85953701A0371501201305C5FC35
:1003C400592101A0138401007C5C50509946910787
:1003D4007CDC04548329C40263EBC600B7160120F5
:1003E40093172600938606F9B6979C4382873715A0
:1003F4000120CA8513054503B92101A02A54BA5026
:100404009A540A59FA496A4A4D6101A503C5040080
:10041400EF0070238A873E879306040803280400AC
:1004240048400C4450442320070148C30CC750C71C
:1004340041044107E314D4FE14403E8514C3D53669
:1004440083A7C1FF37370080130707001D8F8A87F2
:1004540098C0930604083E870328040048400C44CF
:1004640050442320070148C30CC750C74104410727
:10047400E314D4FED1B7EF00F01D8A8748D0138768
:100484000100BE86130404080328070048430C47F0
:10049400504723A00601C8C28CC6D0C64107C10676
:1004A400E31487FE18433E8598C2A53E2685EF00D7
:1004B40090116308350137150120130505016126E4
:1004C400A9232685EF0030168A873E879306040801
:1004D4000328040048400C4450442320070148C327
:1004E4000CC750C741044107E314D4FEB1B79C4084
:1004F400056763F4E70023AEF1FE8A873E8793061F
:1005040004080328040048400C44504423200701F5
:1005140048C30CC750C741044107E314D4FE29BFA4
:10052400B707020037870010938717671CC741116C
:1005340002C632479307703E63EAE7001307703E32
:10054400B24785073EC6B247E37CF7FEB787001083
:10055400984793868700E35D07FE9C474167D98FE0
:100564009CC24101828037270110145F854733956F
:10057400A7001345F5FF758D08DF8280B7270110AA
:1005840023AE070223A007048280411122C406C6B9
:100594002A84D13F054533158500B2402244B7274C
:1005A400011088C741018280411122C406C62A84F1
:1005B4005D3F054533158500B2402244B72701103D
:1005C400C8C3410182808547372701103395A700AE
:1005D4005C4781C55D8D48C782801345F5FF7D8DDD
:1005E40048C78280B7270110984385473395A700F1
:1005F400798D3335A000828005476389E50085C580
:100604008946B317A700639AD500B1BFB726011076
:10061400D85EB397A5005D8FD8DE372701100C5F35
:10062400CD8F1CDF8280B7260110D05EB317A700E0
:1006340013C7F7FF718FD8DE372701100C5FCD8FFA
:100644001CDF828039714AD806DE22DC26DA4ED6D7
:1006540052D42E8951E593070003A30EF10093773A
:1006640049018549B337F000137A2900A544BE999E
:10067400630D0A0A93770901F9E393774900E9EBDB
:1006840063F9C902B3093641014413050003631435
:100694000A00130500020504EF00E07AE31734FFB3
:1006A40063190A0093770901D1E713794900631AA2
:1006B400090A5808A547330497001309E10163E9BF
:1006C4009700034504000504EF00E077E31B24FFD3
:1006D400F2506254D2544259B259225A2161828052
:1006E400B71801209306D101A54493880826294709
:1006F400254319A0C2842E85B377E502FD16B309FC
:1007040097401388F4FFC69783C70700B355E502E3
:10071400A380F600E360A3FE93774901B337F000AA
:10072400137A2900BE99E3170AF4E3EDC9F4937729
:100734000901A5DF1305D002EF00E0709DBF13058A
:10074400D00232C6EF0020703246E3EDC9F295B70D
:100754001305B00232C6EF00006F3246E3E4C9F27B
:1007640089BF1305B002EF00006EA1B739714AD8F2
:100774002E89B715012006DE22DC26DA4ED652D4A5
:10078400340801479385052613080002B357E50092
:10079400BD8BAE9783C70700FD1611072384F600AF
:1007A400E31607FF3C08A1499306000303C70700AB
:1007B40085076316D706FD19E39A09FE1D4485498A
:1007C4009377890089C7937729008909A5E763F19D
:1007D400C902B3093641137A290081441305000381
:1007E40063140A00130500028504B12DE39899FEF1
:1007F4001379A900A1476308F9023C083E94938445
:1008040087000345040005043D2DE39C84FEF2505B
:100814006254D2544259B259225A216182802144ED
:100824003304344171BF13050003312D13058007D0
:10083400192DE1B71305000332C6312513058007CE
:100844001925324669B71D714ED6BECAB7190120A3
:10085400DC0022DC4AD852D456D206DE26DA5AD03C
:100864005ECE2A84AEC2B2C4B6C6BAC8C2CCC6CEA4
:100874003EC613095002130A500593898910A54AEC
:100884000345040001C96302250305046D2B0345D8
:10089400040075F9F2506254D2544259B259225AA2
:1008A400925A025BF24B2561828003471400014B8C
:1008B40081459306140079DF9307D7FD93F7F70F6B
:1008C400636DFA0C8A07CE979C438287B2475A8697
:1008D400884391073EC6593D09045DB7B247B70640
:1008E4000080984391073EC6630CD70C3A85634950
:1008F400070C5A86813B090461B7B247090403C552
:10090400070091073EC68123A5BF63000B0C034774
:100914002400368479BF0347240093E525003684F8
:1009240049BF0347240093E54500368459B71305AE
:100934005002112B0904A9B70347240093E585004D
:10094400368485BFB2475A860904884391073EC658
:10095400D5393DB7B247844391073EC603C5040069
:100964004DC1814785073387F400034707007DFBAA
:1009740063FE6701330BFB40814B850B13050002BB
:10098400D921E31C7BFF03C5040039D585046529FF
:1009940003C5040065FD0904E5B51305C00365211D
:1009A4001305F0034D2113050002712913055002AC
:1009B40059290345140041291305E0036921D9BDD0
:1009C40093E505013305E0402DB7130B07FD0347FD
:1009D40024003684930707FD93F7F70FE3EBFAEC53
:1009E40013162B00329B0504060B3A9B0347140095
:1009F400130B0BFD930707FD93F7F70FE3F2FAFED2
:100A04004DBDE31B0BF60904A5BD896793870780D9
:100A140073A00730B7170120938787B173901734F9
:100A24007300203082804111B727000806C622C413
:100A340026C24AC0AA8593870780238007000564DD
:100A44003719000813060480130509003D260F001A
:100A5400F00F13090900935729007390073BB72738
:100A640000089387070089837390173BC1679387B6
:100A740007F073B0073A130404D07320043AB7079D
:100A840000809387070089837390473B9387C1FF56
:100A94001387C7FF09837310573B89837390673BA0
:100AA400930700F073B0173AB7170800938707B09D
:100AB40073A0173A83A7C1FFB7340080938404005E
:100AC400B387F44089837390273B9387C4FF89835A
:100AD4007390373BB70700FF73B0073AB707000BB3
:100AE40073A0073A89679387078073B007301306AA
:100AF4004008814513850100B524370701209387F9
:100B040001001307C73523AE270784C723A0E708CE
:100B1400EFF02FD15D7185675ED662D46ECEB71BC0
:100B24000120373C0080B74D008093870780A6C220
:100B3400CAC04EDE52DC56DA5AD86AD086C6A2C47F
:100B440066D2371B0120B71A0120371A0120B719C2
:100B5400012037190120B7140120938B4B27371D2F
:100B64000120130C1C10938D0D903EC61305CB2B46
:100B7400D93913858A2DC13913058A2EE931138594
:100B84008930D1311305C9317D391385C4326539B2
:100B9400D1249307D5F993F7F70F4547636AF70C08
:100BA4008A07DE979C438287B7170120138507487D
:100BB40059396DBFB71701201385074769317DB7D0
:100BC400B717012013850743BD394DB713058D3C75
:100BD4009D39914C014513148500FD1CA52C418DB4
:100BE400E39B0CFEB7370080938C0710B2473304A5
:100BF400AC0063E6A708B92C2380AC00850CE39C09
:100C04008CFEB717012013854740353983A70D00A3
:100C1400B1DF37150120130545413531B737008061
:100C2400138507100935B7170120138507392139B2
:100C340035BF371501201305C533313161651305FF
:100C4400056AEFF0CFEF3715012013054536E53E71
:100C5400371501201305050DFD3637150120130541
:100C64008537D5363715012013050538E93EFDBD16
:100C7400B7170120AA851385474DF136C5BDB717AF
:100C840001201385873EC136D5B54111B705012032
:100C9400B707012022C4938747151386C50B370471
:100CA40000083386C7409385C50B1305040006C6A8
:100CB400E9200F00F00F1304040073105430B24005
:100CC400224441018280411181450D4506C6EFF061
:100CD400BF9281451145EFF03F9281451545EFF0F4
:100CE400BF9125458145EFF03F91B747021023A0FE
:100CF400070637070800B8C37D57D8CB23AC0700D5
:100D0400094798CBB2401307F07C98C313054006FB
:100D140041016FF0CFE231C2B308C5002A88014611
:100D2400B7470210354EA94EB847E34F07FE0147B7
:100D340019C103470800B8C7F847E34F07FE99C92C
:100D440089C66309C7016307D7013383C50023003C
:100D5400E30005060508E31918FD81C52E96230056
:100D64000600828093F5F50FB307C50011C605058B
:100D7400A30FB5FEE31DF5FE828011CA2A968505F0
:100D840083C7F5FF0505A30FF5FEE31AC5FE8280B0
:100D940083C7050089CF01CE2A9619A06309C5002F
:100DA4000505A30FF5FE850583C70500E5FB8280D5
:100DB400834705008505050589C703C7F5FF998F96
:100DC400E5DB3E8582808347050091CB814785071B
:100DD4003307F500034707007DFB3E85828081478A
:100DE4003E858280411126C28145AA84414506C6BA
:100DF40022C4EFF07F803734011081454545EFF080
:100E0400AFFF2324040023260400EFF0EFD2335570
:100E140095028547B24092447D1508CC1CC45CC43D
:100E24002244410182800346050009CE9306150041
:100E3400373701101C43E3CF07FE10C3850603C6F2
:100E4400F6FF6DFA8280373701101C43E3CF07FEAB
:100E540008C38280B7370110C843E34F05FE1375FA
:040E6400F50F828084
:100E680037350080B7470080130605009387479001
:100E78003386C740B76753651D719387F7F53EC43E
:100E8800B7576162938737C63EC699679387F7F568
:100E980081451305050086CEA2CCA6CACAC8CEC60F
:100EA800D2C43EC802CA02CC02CE02D0553D9387B6
:100EB80041081386C1FFB71501203386C7409385C3
:100EC800454F1385C1FF453D714681452800493D81
:100ED8007146814548106935EFF04FE4EFF0CFE9EE
:100EE800716513050520ED3DEFF04FA93715012079
:100EF8001305450AEFF08FA937353101130505D0E1
:100F0800EFF0AFC3371501201305050BEFF00FA85D
:100F1800371501204547B1460146930521011305C0
:100F2800850BEFF06FBC371501201305850C113ABE
:100F38000144371A0120A9443549ED4919A00D3556
:100F48000144393798002297AA872302A7FE7146E1
:100F580081454810E38597FEE38327FF0504E312E4
:100F680034FF4C102800993509C571468145481051
:0E0F7800F9B713054A0DF1303933593EFDB774
:100F88002D2D3E2025730000F203012000040120CE
:100F980010040120B00401207A040120F204012089
:100FA80044040120696E7374723A20307825303415
:100FB800780D0A00696E7374723A203078253038DB
:100FC800780D0A00696E737472756374696F6E20A8
:100FD800616363657373206661756C7420402030AB
:100FE80078253038780D0A00696C6C6567616C206B
:100FF800696E737472756374696F6E2061742030E2
:1010080078253038783A200077726F6E67206C65E3
:101018006E67746820676976656E20746F207561E5
:1010280072745F7075747374720D0A00556E6B6E0E
:101038006F776E2073797363616C6C2069642040EC
:10104800203078253038783A2025640D0A000000D1
:10105800457863657074696F6E206F636375726538
:10106800642E0D0A000000006D63617573653A20F7
:101078003078253038780D0A000000006D657063FF
:101088003A202020307825303878096D7476616CE4
:101098003A20203078253038780D0A0041542B52F8
:1010A80053540D0A00000000415445300D0A000059
:1010B80041542B4349505354414D41433F0D0A007D
:1010C80057656C636F6D652E0D0A00004772656584
:1010D80074696E67732050726F666573736F7220E0
:1010E80046616C6B656E2E205368616C6C20776569
:1010F80020706C617920612067616D653F0D0A0081
:101108003C0901209E090120320901209E09012085
:101118009E0901209E0901209E0901209E090120A7
:10112800260901209E0901209E0901209E0901200F
:101138009E0901201A0901200E0901200E0901202B
:101148000E0901200E0901200E0901200E090120B7
:101158000E0901200E0901200E0901209E09012017
:101168009E0901209E0901209E0901209E09012057
:101178009E0901209E0901209E0901209E09012047
:101188009E0901209E0901209E0901209E09012037
:101198009E0901209E0901209E0901209E09012027
:1011A8009E0901209E0901209E0901209E09012017
:1011B8009E0901209E0901209E0901209E09012007
:1011C8009E0901209E0901209E0901209E090120F7
:1011D8009E0901209E0901209E0901209E090120E7
:1011E8009E0901209E0901209E0901209E090120D7
:1011F8009E0901209E0901209E0901209E090120C7
:10120800FE080120E00801209E0901209E09012016
:101218009E0901209E090120E00801209E09012065
:101228009E0901209E0901209E0901209E09012096
:101238009E090120D00801209E0901209E09012055
:10124800580901209E090120480901209E09012012
:101258009E090120D0080120303132333435363729
:10126800383961626364656600000000360C01204D
:10127800740C0120740C0120740C01202A0C01202C
:10128800740C0120740C0120740C0120740C0120D2
:10129800D00B0120C40B0120740C0120740C012018
:1012A800B80B0120740C0120740C0120740C01206F
:1012B800AC0B01205768617420646F20796F75202A
:1012C80077616E7420746F20706C61793F0D0A002D
:1012D8000963202D2043686573730D0A0000000020
:1012E8000967202D20476C6F62616C205468657215
:1012F8006D6F6E75636C656172205761720D0A00BF
:10130800096D202D204D696E65737765657065726E
:101318000D0A00000970202D2050696E67506F6E0D
:10132800670D0A000974202D205465747269730DC5
:101338000A000000416C726967687420426F62623B
:1013480079204669736865722E0D0A4C6F6164696D
:101358006E672043686573732E2E2E00446F6E658A
:101368002E20596F75206C6F73742E0D0A000000C3
:10137800426573742C0D0A004D69636861696C20BD
:1013880054616C0D0A000000536F7272792C207939
:101398006F752073686F756C64206B6E6F77206E45
:1013A8006F7420746F20706C617920746861742088
:1013B80067616D652077697468206D652E0D0A0078
:1013C800536F2C20796F752062726F75676874206F
:1013D800796F7572206F776E2C2068653F0D0A0053
:1013E80047616D6520697320746F6F20626967209B
:1013F800666F72206D650D0A0000000047616D651B
:101408002072656365697665640D0A0053746172BC
:1014180074696E672047616D652023637573746F07
:101428006D4D6164650D0A0057656972642E204D23
:10143800696E6573776565706572206E6F74206676
:101448006F756E642C20736F6D656F6E65206D759A
:10145800737420686176652064656C6574656420C2
:1014680069742E0D0A00000050616E672E20492015
:1014780077696E2E0D0A000053696E6365204A6F06
:101488006E6173204E657562617565722073746F45
:1014980070706564206279206C617374206D6F6E62
:1014A8007468204920646F6E27742077616E7420F9
:1014B800746F20706C61792054657472697320614F
:1014C8006E796D6F72652E0D0A0000007265636596
:1014D8006976656420756E6B6E6F776E20636F6DCD
:0C14E8006D616E643A2025630D0A00005F
:1014F40000080000000000000000000000000000E0
:1015040000000000000000000000000000000000D7
:1015140000000000000000000000000000000000C7
:1015240000000000000000000000000000000000B7
:1015340000000000000000000000000000000000A7
:101544000000000000000000000000000000000097
:101554000000000000000000000000000000000087
:101564000000000000000000000000000000000077
:0815740000000000000000006F
:0400000520010000D6
:00000001FF
